{
  "contracts/SafeMeeting.sol": {
    "SafeMeeting": {
      "abi": [
        {
          "inputs": [
            {
              "internalType": "address",
              "name": "walletAddress",
              "type": "address"
            },
            {
              "internalType": "uint256",
              "name": "companyID",
              "type": "uint256"
            }
          ],
          "name": "SafeMeeting__AlreadyListed",
          "type": "error"
        },
        {
          "inputs": [
            {
              "internalType": "address",
              "name": "walletAddress",
              "type": "address"
            },
            {
              "internalType": "uint256",
              "name": "companyID",
              "type": "uint256"
            }
          ],
          "name": "SafeMeeting__DoesNotHaveAccess",
          "type": "error"
        },
        {
          "inputs": [
            {
              "internalType": "address",
              "name": "walletAddress",
              "type": "address"
            },
            {
              "internalType": "uint256",
              "name": "companyID",
              "type": "uint256"
            },
            {
              "internalType": "uint256",
              "name": "meetingID",
              "type": "uint256"
            }
          ],
          "name": "SafeMeeting__MeetingNotListed",
          "type": "error"
        },
        {
          "anonymous": false,
          "inputs": [
            {
              "indexed": true,
              "internalType": "address",
              "name": "walletAddress",
              "type": "address"
            },
            {
              "indexed": true,
              "internalType": "uint256",
              "name": "companyID",
              "type": "uint256"
            }
          ],
          "name": "WalletListed",
          "type": "event"
        },
        {
          "inputs": [
            {
              "internalType": "address",
              "name": "walletAddress",
              "type": "address"
            },
            {
              "internalType": "uint256",
              "name": "companyID",
              "type": "uint256"
            }
          ],
          "name": "addAddressToCompany",
          "outputs": [],
          "stateMutability": "nonpayable",
          "type": "function"
        },
        {
          "inputs": [
            {
              "internalType": "address",
              "name": "walletAddress",
              "type": "address"
            }
          ],
          "name": "getCompanyIDFromWallet",
          "outputs": [
            {
              "internalType": "uint256[]",
              "name": "",
              "type": "uint256[]"
            }
          ],
          "stateMutability": "view",
          "type": "function"
        },
        {
          "inputs": [
            {
              "internalType": "uint256",
              "name": "companyID",
              "type": "uint256"
            },
            {
              "internalType": "uint256",
              "name": "meetingID",
              "type": "uint256"
            }
          ],
          "name": "getMeetingData",
          "outputs": [
            {
              "components": [
                {
                  "internalType": "uint256",
                  "name": "meetingID",
                  "type": "uint256"
                },
                {
                  "internalType": "string",
                  "name": "chairpersonName",
                  "type": "string"
                },
                {
                  "internalType": "string",
                  "name": "timestamp",
                  "type": "string"
                },
                {
                  "internalType": "uint256",
                  "name": "numberOfMembers",
                  "type": "uint256"
                },
                {
                  "internalType": "string",
                  "name": "contentHash",
                  "type": "string"
                },
                {
                  "components": [
                    {
                      "internalType": "string",
                      "name": "memberName",
                      "type": "string"
                    },
                    {
                      "internalType": "string",
                      "name": "memberRole",
                      "type": "string"
                    }
                  ],
                  "internalType": "struct SafeMeeting.MemberRole[]",
                  "name": "memberToRoles",
                  "type": "tuple[]"
                }
              ],
              "internalType": "struct SafeMeeting.MeetingData",
              "name": "",
              "type": "tuple"
            }
          ],
          "stateMutability": "view",
          "type": "function"
        },
        {
          "inputs": [
            {
              "internalType": "uint256",
              "name": "companyID",
              "type": "uint256"
            },
            {
              "internalType": "uint256",
              "name": "meetingID",
              "type": "uint256"
            },
            {
              "internalType": "string",
              "name": "chairpersonName",
              "type": "string"
            },
            {
              "internalType": "string",
              "name": "timestamp",
              "type": "string"
            },
            {
              "internalType": "uint256",
              "name": "numberOfMembers",
              "type": "uint256"
            },
            {
              "internalType": "string",
              "name": "contentHash",
              "type": "string"
            },
            {
              "internalType": "string[]",
              "name": "memberNames",
              "type": "string[]"
            },
            {
              "internalType": "string[]",
              "name": "roles",
              "type": "string[]"
            }
          ],
          "name": "storeContent",
          "outputs": [],
          "stateMutability": "nonpayable",
          "type": "function"
        }
      ],
      "devdoc": {
        "author": "Wahaj Javed",
        "details": "This implements simple mappings and events to accomplish the task",
        "kind": "dev",
        "methods": {
          "addAddressToCompany(address,uint256)": {
            "params": {
              "companyID": ": the ID of the company",
              "walletAddress": ": The address of the wallet of the user"
            }
          },
          "getCompanyIDFromWallet(address)": {
            "params": {
              "walletAddress": ": The address of the wallet of the user"
            },
            "returns": {
              "_0": "The list of company IDs"
            }
          },
          "getMeetingData(uint256,uint256)": {
            "params": {
              "companyID": ": the ID of the company",
              "meetingID": ": the ID of the meeting to be accessed"
            },
            "returns": {
              "_0": "The requested meeting data"
            }
          },
          "storeContent(uint256,uint256,string,string,uint256,string,string[],string[])": {
            "params": {
              "chairpersonName": ": The Name of the chairperson in the meeting",
              "companyID": ": The ID of the company",
              "contentHash": ": The Hash value of the content PDF",
              "meetingID": ": The ID of the meeting recieved from the database",
              "memberNames": ": The List of the names of all members",
              "numberOfMembers": ": The number of members who attended the meeting",
              "roles": ": The List of the roles of all members",
              "timestamp": ": The time at which meeting was held"
            }
          }
        },
        "title": "Safe Meetings",
        "version": 1
      },
      "evm": {
        "bytecode": {
          "linkReferences": {},
          "object": "608060405234801561001057600080fd5b50611958806100206000396000f3fe608060405234801561001057600080fd5b506004361061004c5760003560e01c80631c0c8afe14610051578063211a2cd41461006d578063b5ed1a0d1461009d578063fb3858d5146100cd575b600080fd5b61006b60048036038101906100669190611221565b6100e9565b005b61008760048036038101906100829190611363565b61039d565b60405161009491906115de565b60405180910390f35b6100b760048036038101906100b2919061165e565b610c67565b6040516100c4919061173a565b60405180910390f35b6100e760048036038101906100e2919061175c565b610cfd565b005b338860008060008473ffffffffffffffffffffffffffffffffffffffff1673ffffffffffffffffffffffffffffffffffffffff16815260200190815260200160002080548060200260200160405190810160405280929190818152602001828054801561017557602002820191906000526020600020905b815481526020019060010190808311610161575b505050505090506000805b82518110156101c7578383828151811061019d5761019c61179c565b5b602002602001015114156101b457600191506101c7565b80806101bf906117fa565b915050610180565b508061020c5783836040517f614281fb000000000000000000000000000000000000000000000000000000008152600401610203929190611861565b60405180910390fd5b6000600160008e815260200190815260200160002060018160018154018082558091505003906000526020600020906006020190508b81600001819055508a816001019080519060200190610262929190610ed2565b508981600201908051906020019061027b929190610ed2565b508881600301819055508781600401908051906020019061029d929190610ed2565b5060005b875181101561038d578160050160018160018154018082558091505003906000526020600020905050600060405180604001604052808a84815181106102ea576102e961179c565b5b6020026020010151815260200189848151811061030a5761030961179c565b5b602002602001015181525090508083600501838154811061032e5761032d61179c565b5b90600052602060002090600202016000820151816000019080519060200190610358929190610ed2565b506020820151816001019080519060200190610375929190610ed2565b50905050508080610385906117fa565b9150506102a1565b5050505050505050505050505050565b6103a5610f58565b338360008060008473ffffffffffffffffffffffffffffffffffffffff1673ffffffffffffffffffffffffffffffffffffffff16815260200190815260200160002080548060200260200160405190810160405280929190818152602001828054801561043157602002820191906000526020600020905b81548152602001906001019080831161041d575b505050505090506000805b825181101561048357838382815181106104595761045861179c565b5b602002602001015114156104705760019150610483565b808061047b906117fa565b91505061043c565b50806104c85783836040517f614281fb0000000000000000000000000000000000000000000000000000000081526004016104bf929190611861565b60405180910390fd5b8686600060016000848152602001908152602001600020805480602002602001604051908101604052809291908181526020016000905b8282101561087e57838290600052602060002090600602016040518060c00160405290816000820154815260200160018201805461053c906118b9565b80601f0160208091040260200160405190810160405280929190818152602001828054610568906118b9565b80156105b55780601f1061058a576101008083540402835291602001916105b5565b820191906000526020600020905b81548152906001019060200180831161059857829003601f168201915b505050505081526020016002820180546105ce906118b9565b80601f01602080910402602001604051908101604052809291908181526020018280546105fa906118b9565b80156106475780601f1061061c57610100808354040283529160200191610647565b820191906000526020600020905b81548152906001019060200180831161062a57829003601f168201915b505050505081526020016003820154815260200160048201805461066a906118b9565b80601f0160208091040260200160405190810160405280929190818152602001828054610696906118b9565b80156106e35780601f106106b8576101008083540402835291602001916106e3565b820191906000526020600020905b8154815290600101906020018083116106c657829003601f168201915b5050505050815260200160058201805480602002602001604051908101604052809291908181526020016000905b828210156108675783829060005260206000209060020201604051806040016040529081600082018054610744906118b9565b80601f0160208091040260200160405190810160405280929190818152602001828054610770906118b9565b80156107bd5780601f10610792576101008083540402835291602001916107bd565b820191906000526020600020905b8154815290600101906020018083116107a057829003601f168201915b505050505081526020016001820180546107d6906118b9565b80601f0160208091040260200160405190810160405280929190818152602001828054610802906118b9565b801561084f5780601f106108245761010080835404028352916020019161084f565b820191906000526020600020905b81548152906001019060200180831161083257829003601f168201915b50505050508152505081526020019060010190610711565b5050505081525050815260200190600101906104ff565b505050509050805182106108cd573383836040517f042d9e660000000000000000000000000000000000000000000000000000000081526004016108c4939291906118eb565b60405180910390fd5b600160008b815260200190815260200160002089815481106108f2576108f161179c565b5b90600052602060002090600602016040518060c001604052908160008201548152602001600182018054610925906118b9565b80601f0160208091040260200160405190810160405280929190818152602001828054610951906118b9565b801561099e5780601f106109735761010080835404028352916020019161099e565b820191906000526020600020905b81548152906001019060200180831161098157829003601f168201915b505050505081526020016002820180546109b7906118b9565b80601f01602080910402602001604051908101604052809291908181526020018280546109e3906118b9565b8015610a305780601f10610a0557610100808354040283529160200191610a30565b820191906000526020600020905b815481529060010190602001808311610a1357829003601f168201915b5050505050815260200160038201548152602001600482018054610a53906118b9565b80601f0160208091040260200160405190810160405280929190818152602001828054610a7f906118b9565b8015610acc5780601f10610aa157610100808354040283529160200191610acc565b820191906000526020600020905b815481529060010190602001808311610aaf57829003601f168201915b5050505050815260200160058201805480602002602001604051908101604052809291908181526020016000905b82821015610c505783829060005260206000209060020201604051806040016040529081600082018054610b2d906118b9565b80601f0160208091040260200160405190810160405280929190818152602001828054610b59906118b9565b8015610ba65780601f10610b7b57610100808354040283529160200191610ba6565b820191906000526020600020905b815481529060010190602001808311610b8957829003601f168201915b50505050508152602001600182018054610bbf906118b9565b80601f0160208091040260200160405190810160405280929190818152602001828054610beb906118b9565b8015610c385780601f10610c0d57610100808354040283529160200191610c38565b820191906000526020600020905b815481529060010190602001808311610c1b57829003601f168201915b50505050508152505081526020019060010190610afa565b505050508152505097505050505050505092915050565b60606000808373ffffffffffffffffffffffffffffffffffffffff1673ffffffffffffffffffffffffffffffffffffffff168152602001908152602001600020805480602002602001604051908101604052809291908181526020018280548015610cf157602002820191906000526020600020905b815481526020019060010190808311610cdd575b50505050509050919050565b818160008060008473ffffffffffffffffffffffffffffffffffffffff1673ffffffffffffffffffffffffffffffffffffffff168152602001908152602001600020805480602002602001604051908101604052809291908181526020018280548015610d8957602002820191906000526020600020905b815481526020019060010190808311610d75575b505050505090506000805b8251811015610ddb5783838281518110610db157610db061179c565b5b60200260200101511415610dc85760019150610ddb565b8080610dd3906117fa565b915050610d94565b508015610e215783836040517f2f966475000000000000000000000000000000000000000000000000000000008152600401610e18929190611861565b60405180910390fd5b6000808773ffffffffffffffffffffffffffffffffffffffff1673ffffffffffffffffffffffffffffffffffffffff168152602001908152602001600020859080600181540180825580915050600190039060005260206000200160009091909190915055848673ffffffffffffffffffffffffffffffffffffffff167fddae5033827d91d189243ddc6c9ea3e1a45dc59a9f20caa36990f6ba2f62753060405160405180910390a3505050505050565b828054610ede906118b9565b90600052602060002090601f016020900481019282610f005760008555610f47565b82601f10610f1957805160ff1916838001178555610f47565b82800160010185558215610f47579182015b82811115610f46578251825591602001919060010190610f2b565b5b509050610f549190610f8e565b5090565b6040518060c001604052806000815260200160608152602001606081526020016000815260200160608152602001606081525090565b5b80821115610fa7576000816000905550600101610f8f565b5090565b6000604051905090565b600080fd5b600080fd5b6000819050919050565b610fd281610fbf565b8114610fdd57600080fd5b50565b600081359050610fef81610fc9565b92915050565b600080fd5b600080fd5b6000601f19601f8301169050919050565b7f4e487b7100000000000000000000000000000000000000000000000000000000600052604160045260246000fd5b61104882610fff565b810181811067ffffffffffffffff8211171561106757611066611010565b5b80604052505050565b600061107a610fab565b9050611086828261103f565b919050565b600067ffffffffffffffff8211156110a6576110a5611010565b5b6110af82610fff565b9050602081019050919050565b82818337600083830152505050565b60006110de6110d98461108b565b611070565b9050828152602081018484840111156110fa576110f9610ffa565b5b6111058482856110bc565b509392505050565b600082601f83011261112257611121610ff5565b5b81356111328482602086016110cb565b91505092915050565b600067ffffffffffffffff82111561115657611155611010565b5b602082029050602081019050919050565b600080fd5b600061117f61117a8461113b565b611070565b905080838252602082019050602084028301858111156111a2576111a1611167565b5b835b818110156111e957803567ffffffffffffffff8111156111c7576111c6610ff5565b5b8086016111d4898261110d565b855260208501945050506020810190506111a4565b5050509392505050565b600082601f83011261120857611207610ff5565b5b813561121884826020860161116c565b91505092915050565b600080600080600080600080610100898b03121561124257611241610fb5565b5b60006112508b828c01610fe0565b98505060206112618b828c01610fe0565b975050604089013567ffffffffffffffff81111561128257611281610fba565b5b61128e8b828c0161110d565b965050606089013567ffffffffffffffff8111156112af576112ae610fba565b5b6112bb8b828c0161110d565b95505060806112cc8b828c01610fe0565b94505060a089013567ffffffffffffffff8111156112ed576112ec610fba565b5b6112f98b828c0161110d565b93505060c089013567ffffffffffffffff81111561131a57611319610fba565b5b6113268b828c016111f3565b92505060e089013567ffffffffffffffff81111561134757611346610fba565b5b6113538b828c016111f3565b9150509295985092959890939650565b6000806040838503121561137a57611379610fb5565b5b600061138885828601610fe0565b925050602061139985828601610fe0565b9150509250929050565b6113ac81610fbf565b82525050565b600081519050919050565b600082825260208201905092915050565b60005b838110156113ec5780820151818401526020810190506113d1565b838111156113fb576000848401525b50505050565b600061140c826113b2565b61141681856113bd565b93506114268185602086016113ce565b61142f81610fff565b840191505092915050565b600081519050919050565b600082825260208201905092915050565b6000819050602082019050919050565b600060408301600083015184820360008601526114838282611401565b9150506020830151848203602086015261149d8282611401565b9150508091505092915050565b60006114b68383611466565b905092915050565b6000602082019050919050565b60006114d68261143a565b6114e08185611445565b9350836020820285016114f285611456565b8060005b8581101561152e578484038952815161150f85826114aa565b945061151a836114be565b925060208a019950506001810190506114f6565b50829750879550505050505092915050565b600060c08301600083015161155860008601826113a3565b50602083015184820360208601526115708282611401565b9150506040830151848203604086015261158a8282611401565b915050606083015161159f60608601826113a3565b50608083015184820360808601526115b78282611401565b91505060a083015184820360a08601526115d182826114cb565b9150508091505092915050565b600060208201905081810360008301526115f88184611540565b905092915050565b600073ffffffffffffffffffffffffffffffffffffffff82169050919050565b600061162b82611600565b9050919050565b61163b81611620565b811461164657600080fd5b50565b60008135905061165881611632565b92915050565b60006020828403121561167457611673610fb5565b5b600061168284828501611649565b91505092915050565b600081519050919050565b600082825260208201905092915050565b6000819050602082019050919050565b60006116c383836113a3565b60208301905092915050565b6000602082019050919050565b60006116e78261168b565b6116f18185611696565b93506116fc836116a7565b8060005b8381101561172d57815161171488826116b7565b975061171f836116cf565b925050600181019050611700565b5085935050505092915050565b6000602082019050818103600083015261175481846116dc565b905092915050565b6000806040838503121561177357611772610fb5565b5b600061178185828601611649565b925050602061179285828601610fe0565b9150509250929050565b7f4e487b7100000000000000000000000000000000000000000000000000000000600052603260045260246000fd5b7f4e487b7100000000000000000000000000000000000000000000000000000000600052601160045260246000fd5b600061180582610fbf565b91507fffffffffffffffffffffffffffffffffffffffffffffffffffffffffffffffff821415611838576118376117cb565b5b600182019050919050565b61184c81611620565b82525050565b61185b81610fbf565b82525050565b60006040820190506118766000830185611843565b6118836020830184611852565b9392505050565b7f4e487b7100000000000000000000000000000000000000000000000000000000600052602260045260246000fd5b600060028204905060018216806118d157607f821691505b602082108114156118e5576118e461188a565b5b50919050565b60006060820190506119006000830186611843565b61190d6020830185611852565b61191a6040830184611852565b94935050505056fea26469706673582212205b52368a44f2f95477a09a386baaf3d56ff4d1dc553ef9da05e7d5993b2827a464736f6c63430008080033",
          "opcodes": "PUSH1 0x80 PUSH1 0x40 MSTORE CALLVALUE DUP1 ISZERO PUSH2 0x10 JUMPI PUSH1 0x0 DUP1 REVERT JUMPDEST POP PUSH2 0x1958 DUP1 PUSH2 0x20 PUSH1 0x0 CODECOPY PUSH1 0x0 RETURN INVALID PUSH1 0x80 PUSH1 0x40 MSTORE CALLVALUE DUP1 ISZERO PUSH2 0x10 JUMPI PUSH1 0x0 DUP1 REVERT JUMPDEST POP PUSH1 0x4 CALLDATASIZE LT PUSH2 0x4C JUMPI PUSH1 0x0 CALLDATALOAD PUSH1 0xE0 SHR DUP1 PUSH4 0x1C0C8AFE EQ PUSH2 0x51 JUMPI DUP1 PUSH4 0x211A2CD4 EQ PUSH2 0x6D JUMPI DUP1 PUSH4 0xB5ED1A0D EQ PUSH2 0x9D JUMPI DUP1 PUSH4 0xFB3858D5 EQ PUSH2 0xCD JUMPI JUMPDEST PUSH1 0x0 DUP1 REVERT JUMPDEST PUSH2 0x6B PUSH1 0x4 DUP1 CALLDATASIZE SUB DUP2 ADD SWAP1 PUSH2 0x66 SWAP2 SWAP1 PUSH2 0x1221 JUMP JUMPDEST PUSH2 0xE9 JUMP JUMPDEST STOP JUMPDEST PUSH2 0x87 PUSH1 0x4 DUP1 CALLDATASIZE SUB DUP2 ADD SWAP1 PUSH2 0x82 SWAP2 SWAP1 PUSH2 0x1363 JUMP JUMPDEST PUSH2 0x39D JUMP JUMPDEST PUSH1 0x40 MLOAD PUSH2 0x94 SWAP2 SWAP1 PUSH2 0x15DE JUMP JUMPDEST PUSH1 0x40 MLOAD DUP1 SWAP2 SUB SWAP1 RETURN JUMPDEST PUSH2 0xB7 PUSH1 0x4 DUP1 CALLDATASIZE SUB DUP2 ADD SWAP1 PUSH2 0xB2 SWAP2 SWAP1 PUSH2 0x165E JUMP JUMPDEST PUSH2 0xC67 JUMP JUMPDEST PUSH1 0x40 MLOAD PUSH2 0xC4 SWAP2 SWAP1 PUSH2 0x173A JUMP JUMPDEST PUSH1 0x40 MLOAD DUP1 SWAP2 SUB SWAP1 RETURN JUMPDEST PUSH2 0xE7 PUSH1 0x4 DUP1 CALLDATASIZE SUB DUP2 ADD SWAP1 PUSH2 0xE2 SWAP2 SWAP1 PUSH2 0x175C JUMP JUMPDEST PUSH2 0xCFD JUMP JUMPDEST STOP JUMPDEST CALLER DUP9 PUSH1 0x0 DUP1 PUSH1 0x0 DUP5 PUSH20 0xFFFFFFFFFFFFFFFFFFFFFFFFFFFFFFFFFFFFFFFF AND PUSH20 0xFFFFFFFFFFFFFFFFFFFFFFFFFFFFFFFFFFFFFFFF AND DUP2 MSTORE PUSH1 0x20 ADD SWAP1 DUP2 MSTORE PUSH1 0x20 ADD PUSH1 0x0 KECCAK256 DUP1 SLOAD DUP1 PUSH1 0x20 MUL PUSH1 0x20 ADD PUSH1 0x40 MLOAD SWAP1 DUP2 ADD PUSH1 0x40 MSTORE DUP1 SWAP3 SWAP2 SWAP1 DUP2 DUP2 MSTORE PUSH1 0x20 ADD DUP3 DUP1 SLOAD DUP1 ISZERO PUSH2 0x175 JUMPI PUSH1 0x20 MUL DUP3 ADD SWAP2 SWAP1 PUSH1 0x0 MSTORE PUSH1 0x20 PUSH1 0x0 KECCAK256 SWAP1 JUMPDEST DUP2 SLOAD DUP2 MSTORE PUSH1 0x20 ADD SWAP1 PUSH1 0x1 ADD SWAP1 DUP1 DUP4 GT PUSH2 0x161 JUMPI JUMPDEST POP POP POP POP POP SWAP1 POP PUSH1 0x0 DUP1 JUMPDEST DUP3 MLOAD DUP2 LT ISZERO PUSH2 0x1C7 JUMPI DUP4 DUP4 DUP3 DUP2 MLOAD DUP2 LT PUSH2 0x19D JUMPI PUSH2 0x19C PUSH2 0x179C JUMP JUMPDEST JUMPDEST PUSH1 0x20 MUL PUSH1 0x20 ADD ADD MLOAD EQ ISZERO PUSH2 0x1B4 JUMPI PUSH1 0x1 SWAP2 POP PUSH2 0x1C7 JUMP JUMPDEST DUP1 DUP1 PUSH2 0x1BF SWAP1 PUSH2 0x17FA JUMP JUMPDEST SWAP2 POP POP PUSH2 0x180 JUMP JUMPDEST POP DUP1 PUSH2 0x20C JUMPI DUP4 DUP4 PUSH1 0x40 MLOAD PUSH32 0x614281FB00000000000000000000000000000000000000000000000000000000 DUP2 MSTORE PUSH1 0x4 ADD PUSH2 0x203 SWAP3 SWAP2 SWAP1 PUSH2 0x1861 JUMP JUMPDEST PUSH1 0x40 MLOAD DUP1 SWAP2 SUB SWAP1 REVERT JUMPDEST PUSH1 0x0 PUSH1 0x1 PUSH1 0x0 DUP15 DUP2 MSTORE PUSH1 0x20 ADD SWAP1 DUP2 MSTORE PUSH1 0x20 ADD PUSH1 0x0 KECCAK256 PUSH1 0x1 DUP2 PUSH1 0x1 DUP2 SLOAD ADD DUP1 DUP3 SSTORE DUP1 SWAP2 POP POP SUB SWAP1 PUSH1 0x0 MSTORE PUSH1 0x20 PUSH1 0x0 KECCAK256 SWAP1 PUSH1 0x6 MUL ADD SWAP1 POP DUP12 DUP2 PUSH1 0x0 ADD DUP2 SWAP1 SSTORE POP DUP11 DUP2 PUSH1 0x1 ADD SWAP1 DUP1 MLOAD SWAP1 PUSH1 0x20 ADD SWAP1 PUSH2 0x262 SWAP3 SWAP2 SWAP1 PUSH2 0xED2 JUMP JUMPDEST POP DUP10 DUP2 PUSH1 0x2 ADD SWAP1 DUP1 MLOAD SWAP1 PUSH1 0x20 ADD SWAP1 PUSH2 0x27B SWAP3 SWAP2 SWAP1 PUSH2 0xED2 JUMP JUMPDEST POP DUP9 DUP2 PUSH1 0x3 ADD DUP2 SWAP1 SSTORE POP DUP8 DUP2 PUSH1 0x4 ADD SWAP1 DUP1 MLOAD SWAP1 PUSH1 0x20 ADD SWAP1 PUSH2 0x29D SWAP3 SWAP2 SWAP1 PUSH2 0xED2 JUMP JUMPDEST POP PUSH1 0x0 JUMPDEST DUP8 MLOAD DUP2 LT ISZERO PUSH2 0x38D JUMPI DUP2 PUSH1 0x5 ADD PUSH1 0x1 DUP2 PUSH1 0x1 DUP2 SLOAD ADD DUP1 DUP3 SSTORE DUP1 SWAP2 POP POP SUB SWAP1 PUSH1 0x0 MSTORE PUSH1 0x20 PUSH1 0x0 KECCAK256 SWAP1 POP POP PUSH1 0x0 PUSH1 0x40 MLOAD DUP1 PUSH1 0x40 ADD PUSH1 0x40 MSTORE DUP1 DUP11 DUP5 DUP2 MLOAD DUP2 LT PUSH2 0x2EA JUMPI PUSH2 0x2E9 PUSH2 0x179C JUMP JUMPDEST JUMPDEST PUSH1 0x20 MUL PUSH1 0x20 ADD ADD MLOAD DUP2 MSTORE PUSH1 0x20 ADD DUP10 DUP5 DUP2 MLOAD DUP2 LT PUSH2 0x30A JUMPI PUSH2 0x309 PUSH2 0x179C JUMP JUMPDEST JUMPDEST PUSH1 0x20 MUL PUSH1 0x20 ADD ADD MLOAD DUP2 MSTORE POP SWAP1 POP DUP1 DUP4 PUSH1 0x5 ADD DUP4 DUP2 SLOAD DUP2 LT PUSH2 0x32E JUMPI PUSH2 0x32D PUSH2 0x179C JUMP JUMPDEST JUMPDEST SWAP1 PUSH1 0x0 MSTORE PUSH1 0x20 PUSH1 0x0 KECCAK256 SWAP1 PUSH1 0x2 MUL ADD PUSH1 0x0 DUP3 ADD MLOAD DUP2 PUSH1 0x0 ADD SWAP1 DUP1 MLOAD SWAP1 PUSH1 0x20 ADD SWAP1 PUSH2 0x358 SWAP3 SWAP2 SWAP1 PUSH2 0xED2 JUMP JUMPDEST POP PUSH1 0x20 DUP3 ADD MLOAD DUP2 PUSH1 0x1 ADD SWAP1 DUP1 MLOAD SWAP1 PUSH1 0x20 ADD SWAP1 PUSH2 0x375 SWAP3 SWAP2 SWAP1 PUSH2 0xED2 JUMP JUMPDEST POP SWAP1 POP POP POP DUP1 DUP1 PUSH2 0x385 SWAP1 PUSH2 0x17FA JUMP JUMPDEST SWAP2 POP POP PUSH2 0x2A1 JUMP JUMPDEST POP POP POP POP POP POP POP POP POP POP POP POP POP POP JUMP JUMPDEST PUSH2 0x3A5 PUSH2 0xF58 JUMP JUMPDEST CALLER DUP4 PUSH1 0x0 DUP1 PUSH1 0x0 DUP5 PUSH20 0xFFFFFFFFFFFFFFFFFFFFFFFFFFFFFFFFFFFFFFFF AND PUSH20 0xFFFFFFFFFFFFFFFFFFFFFFFFFFFFFFFFFFFFFFFF AND DUP2 MSTORE PUSH1 0x20 ADD SWAP1 DUP2 MSTORE PUSH1 0x20 ADD PUSH1 0x0 KECCAK256 DUP1 SLOAD DUP1 PUSH1 0x20 MUL PUSH1 0x20 ADD PUSH1 0x40 MLOAD SWAP1 DUP2 ADD PUSH1 0x40 MSTORE DUP1 SWAP3 SWAP2 SWAP1 DUP2 DUP2 MSTORE PUSH1 0x20 ADD DUP3 DUP1 SLOAD DUP1 ISZERO PUSH2 0x431 JUMPI PUSH1 0x20 MUL DUP3 ADD SWAP2 SWAP1 PUSH1 0x0 MSTORE PUSH1 0x20 PUSH1 0x0 KECCAK256 SWAP1 JUMPDEST DUP2 SLOAD DUP2 MSTORE PUSH1 0x20 ADD SWAP1 PUSH1 0x1 ADD SWAP1 DUP1 DUP4 GT PUSH2 0x41D JUMPI JUMPDEST POP POP POP POP POP SWAP1 POP PUSH1 0x0 DUP1 JUMPDEST DUP3 MLOAD DUP2 LT ISZERO PUSH2 0x483 JUMPI DUP4 DUP4 DUP3 DUP2 MLOAD DUP2 LT PUSH2 0x459 JUMPI PUSH2 0x458 PUSH2 0x179C JUMP JUMPDEST JUMPDEST PUSH1 0x20 MUL PUSH1 0x20 ADD ADD MLOAD EQ ISZERO PUSH2 0x470 JUMPI PUSH1 0x1 SWAP2 POP PUSH2 0x483 JUMP JUMPDEST DUP1 DUP1 PUSH2 0x47B SWAP1 PUSH2 0x17FA JUMP JUMPDEST SWAP2 POP POP PUSH2 0x43C JUMP JUMPDEST POP DUP1 PUSH2 0x4C8 JUMPI DUP4 DUP4 PUSH1 0x40 MLOAD PUSH32 0x614281FB00000000000000000000000000000000000000000000000000000000 DUP2 MSTORE PUSH1 0x4 ADD PUSH2 0x4BF SWAP3 SWAP2 SWAP1 PUSH2 0x1861 JUMP JUMPDEST PUSH1 0x40 MLOAD DUP1 SWAP2 SUB SWAP1 REVERT JUMPDEST DUP7 DUP7 PUSH1 0x0 PUSH1 0x1 PUSH1 0x0 DUP5 DUP2 MSTORE PUSH1 0x20 ADD SWAP1 DUP2 MSTORE PUSH1 0x20 ADD PUSH1 0x0 KECCAK256 DUP1 SLOAD DUP1 PUSH1 0x20 MUL PUSH1 0x20 ADD PUSH1 0x40 MLOAD SWAP1 DUP2 ADD PUSH1 0x40 MSTORE DUP1 SWAP3 SWAP2 SWAP1 DUP2 DUP2 MSTORE PUSH1 0x20 ADD PUSH1 0x0 SWAP1 JUMPDEST DUP3 DUP3 LT ISZERO PUSH2 0x87E JUMPI DUP4 DUP3 SWAP1 PUSH1 0x0 MSTORE PUSH1 0x20 PUSH1 0x0 KECCAK256 SWAP1 PUSH1 0x6 MUL ADD PUSH1 0x40 MLOAD DUP1 PUSH1 0xC0 ADD PUSH1 0x40 MSTORE SWAP1 DUP2 PUSH1 0x0 DUP3 ADD SLOAD DUP2 MSTORE PUSH1 0x20 ADD PUSH1 0x1 DUP3 ADD DUP1 SLOAD PUSH2 0x53C SWAP1 PUSH2 0x18B9 JUMP JUMPDEST DUP1 PUSH1 0x1F ADD PUSH1 0x20 DUP1 SWAP2 DIV MUL PUSH1 0x20 ADD PUSH1 0x40 MLOAD SWAP1 DUP2 ADD PUSH1 0x40 MSTORE DUP1 SWAP3 SWAP2 SWAP1 DUP2 DUP2 MSTORE PUSH1 0x20 ADD DUP3 DUP1 SLOAD PUSH2 0x568 SWAP1 PUSH2 0x18B9 JUMP JUMPDEST DUP1 ISZERO PUSH2 0x5B5 JUMPI DUP1 PUSH1 0x1F LT PUSH2 0x58A JUMPI PUSH2 0x100 DUP1 DUP4 SLOAD DIV MUL DUP4 MSTORE SWAP2 PUSH1 0x20 ADD SWAP2 PUSH2 0x5B5 JUMP JUMPDEST DUP3 ADD SWAP2 SWAP1 PUSH1 0x0 MSTORE PUSH1 0x20 PUSH1 0x0 KECCAK256 SWAP1 JUMPDEST DUP2 SLOAD DUP2 MSTORE SWAP1 PUSH1 0x1 ADD SWAP1 PUSH1 0x20 ADD DUP1 DUP4 GT PUSH2 0x598 JUMPI DUP3 SWAP1 SUB PUSH1 0x1F AND DUP3 ADD SWAP2 JUMPDEST POP POP POP POP POP DUP2 MSTORE PUSH1 0x20 ADD PUSH1 0x2 DUP3 ADD DUP1 SLOAD PUSH2 0x5CE SWAP1 PUSH2 0x18B9 JUMP JUMPDEST DUP1 PUSH1 0x1F ADD PUSH1 0x20 DUP1 SWAP2 DIV MUL PUSH1 0x20 ADD PUSH1 0x40 MLOAD SWAP1 DUP2 ADD PUSH1 0x40 MSTORE DUP1 SWAP3 SWAP2 SWAP1 DUP2 DUP2 MSTORE PUSH1 0x20 ADD DUP3 DUP1 SLOAD PUSH2 0x5FA SWAP1 PUSH2 0x18B9 JUMP JUMPDEST DUP1 ISZERO PUSH2 0x647 JUMPI DUP1 PUSH1 0x1F LT PUSH2 0x61C JUMPI PUSH2 0x100 DUP1 DUP4 SLOAD DIV MUL DUP4 MSTORE SWAP2 PUSH1 0x20 ADD SWAP2 PUSH2 0x647 JUMP JUMPDEST DUP3 ADD SWAP2 SWAP1 PUSH1 0x0 MSTORE PUSH1 0x20 PUSH1 0x0 KECCAK256 SWAP1 JUMPDEST DUP2 SLOAD DUP2 MSTORE SWAP1 PUSH1 0x1 ADD SWAP1 PUSH1 0x20 ADD DUP1 DUP4 GT PUSH2 0x62A JUMPI DUP3 SWAP1 SUB PUSH1 0x1F AND DUP3 ADD SWAP2 JUMPDEST POP POP POP POP POP DUP2 MSTORE PUSH1 0x20 ADD PUSH1 0x3 DUP3 ADD SLOAD DUP2 MSTORE PUSH1 0x20 ADD PUSH1 0x4 DUP3 ADD DUP1 SLOAD PUSH2 0x66A SWAP1 PUSH2 0x18B9 JUMP JUMPDEST DUP1 PUSH1 0x1F ADD PUSH1 0x20 DUP1 SWAP2 DIV MUL PUSH1 0x20 ADD PUSH1 0x40 MLOAD SWAP1 DUP2 ADD PUSH1 0x40 MSTORE DUP1 SWAP3 SWAP2 SWAP1 DUP2 DUP2 MSTORE PUSH1 0x20 ADD DUP3 DUP1 SLOAD PUSH2 0x696 SWAP1 PUSH2 0x18B9 JUMP JUMPDEST DUP1 ISZERO PUSH2 0x6E3 JUMPI DUP1 PUSH1 0x1F LT PUSH2 0x6B8 JUMPI PUSH2 0x100 DUP1 DUP4 SLOAD DIV MUL DUP4 MSTORE SWAP2 PUSH1 0x20 ADD SWAP2 PUSH2 0x6E3 JUMP JUMPDEST DUP3 ADD SWAP2 SWAP1 PUSH1 0x0 MSTORE PUSH1 0x20 PUSH1 0x0 KECCAK256 SWAP1 JUMPDEST DUP2 SLOAD DUP2 MSTORE SWAP1 PUSH1 0x1 ADD SWAP1 PUSH1 0x20 ADD DUP1 DUP4 GT PUSH2 0x6C6 JUMPI DUP3 SWAP1 SUB PUSH1 0x1F AND DUP3 ADD SWAP2 JUMPDEST POP POP POP POP POP DUP2 MSTORE PUSH1 0x20 ADD PUSH1 0x5 DUP3 ADD DUP1 SLOAD DUP1 PUSH1 0x20 MUL PUSH1 0x20 ADD PUSH1 0x40 MLOAD SWAP1 DUP2 ADD PUSH1 0x40 MSTORE DUP1 SWAP3 SWAP2 SWAP1 DUP2 DUP2 MSTORE PUSH1 0x20 ADD PUSH1 0x0 SWAP1 JUMPDEST DUP3 DUP3 LT ISZERO PUSH2 0x867 JUMPI DUP4 DUP3 SWAP1 PUSH1 0x0 MSTORE PUSH1 0x20 PUSH1 0x0 KECCAK256 SWAP1 PUSH1 0x2 MUL ADD PUSH1 0x40 MLOAD DUP1 PUSH1 0x40 ADD PUSH1 0x40 MSTORE SWAP1 DUP2 PUSH1 0x0 DUP3 ADD DUP1 SLOAD PUSH2 0x744 SWAP1 PUSH2 0x18B9 JUMP JUMPDEST DUP1 PUSH1 0x1F ADD PUSH1 0x20 DUP1 SWAP2 DIV MUL PUSH1 0x20 ADD PUSH1 0x40 MLOAD SWAP1 DUP2 ADD PUSH1 0x40 MSTORE DUP1 SWAP3 SWAP2 SWAP1 DUP2 DUP2 MSTORE PUSH1 0x20 ADD DUP3 DUP1 SLOAD PUSH2 0x770 SWAP1 PUSH2 0x18B9 JUMP JUMPDEST DUP1 ISZERO PUSH2 0x7BD JUMPI DUP1 PUSH1 0x1F LT PUSH2 0x792 JUMPI PUSH2 0x100 DUP1 DUP4 SLOAD DIV MUL DUP4 MSTORE SWAP2 PUSH1 0x20 ADD SWAP2 PUSH2 0x7BD JUMP JUMPDEST DUP3 ADD SWAP2 SWAP1 PUSH1 0x0 MSTORE PUSH1 0x20 PUSH1 0x0 KECCAK256 SWAP1 JUMPDEST DUP2 SLOAD DUP2 MSTORE SWAP1 PUSH1 0x1 ADD SWAP1 PUSH1 0x20 ADD DUP1 DUP4 GT PUSH2 0x7A0 JUMPI DUP3 SWAP1 SUB PUSH1 0x1F AND DUP3 ADD SWAP2 JUMPDEST POP POP POP POP POP DUP2 MSTORE PUSH1 0x20 ADD PUSH1 0x1 DUP3 ADD DUP1 SLOAD PUSH2 0x7D6 SWAP1 PUSH2 0x18B9 JUMP JUMPDEST DUP1 PUSH1 0x1F ADD PUSH1 0x20 DUP1 SWAP2 DIV MUL PUSH1 0x20 ADD PUSH1 0x40 MLOAD SWAP1 DUP2 ADD PUSH1 0x40 MSTORE DUP1 SWAP3 SWAP2 SWAP1 DUP2 DUP2 MSTORE PUSH1 0x20 ADD DUP3 DUP1 SLOAD PUSH2 0x802 SWAP1 PUSH2 0x18B9 JUMP JUMPDEST DUP1 ISZERO PUSH2 0x84F JUMPI DUP1 PUSH1 0x1F LT PUSH2 0x824 JUMPI PUSH2 0x100 DUP1 DUP4 SLOAD DIV MUL DUP4 MSTORE SWAP2 PUSH1 0x20 ADD SWAP2 PUSH2 0x84F JUMP JUMPDEST DUP3 ADD SWAP2 SWAP1 PUSH1 0x0 MSTORE PUSH1 0x20 PUSH1 0x0 KECCAK256 SWAP1 JUMPDEST DUP2 SLOAD DUP2 MSTORE SWAP1 PUSH1 0x1 ADD SWAP1 PUSH1 0x20 ADD DUP1 DUP4 GT PUSH2 0x832 JUMPI DUP3 SWAP1 SUB PUSH1 0x1F AND DUP3 ADD SWAP2 JUMPDEST POP POP POP POP POP DUP2 MSTORE POP POP DUP2 MSTORE PUSH1 0x20 ADD SWAP1 PUSH1 0x1 ADD SWAP1 PUSH2 0x711 JUMP JUMPDEST POP POP POP POP DUP2 MSTORE POP POP DUP2 MSTORE PUSH1 0x20 ADD SWAP1 PUSH1 0x1 ADD SWAP1 PUSH2 0x4FF JUMP JUMPDEST POP POP POP POP SWAP1 POP DUP1 MLOAD DUP3 LT PUSH2 0x8CD JUMPI CALLER DUP4 DUP4 PUSH1 0x40 MLOAD PUSH32 0x42D9E6600000000000000000000000000000000000000000000000000000000 DUP2 MSTORE PUSH1 0x4 ADD PUSH2 0x8C4 SWAP4 SWAP3 SWAP2 SWAP1 PUSH2 0x18EB JUMP JUMPDEST PUSH1 0x40 MLOAD DUP1 SWAP2 SUB SWAP1 REVERT JUMPDEST PUSH1 0x1 PUSH1 0x0 DUP12 DUP2 MSTORE PUSH1 0x20 ADD SWAP1 DUP2 MSTORE PUSH1 0x20 ADD PUSH1 0x0 KECCAK256 DUP10 DUP2 SLOAD DUP2 LT PUSH2 0x8F2 JUMPI PUSH2 0x8F1 PUSH2 0x179C JUMP JUMPDEST JUMPDEST SWAP1 PUSH1 0x0 MSTORE PUSH1 0x20 PUSH1 0x0 KECCAK256 SWAP1 PUSH1 0x6 MUL ADD PUSH1 0x40 MLOAD DUP1 PUSH1 0xC0 ADD PUSH1 0x40 MSTORE SWAP1 DUP2 PUSH1 0x0 DUP3 ADD SLOAD DUP2 MSTORE PUSH1 0x20 ADD PUSH1 0x1 DUP3 ADD DUP1 SLOAD PUSH2 0x925 SWAP1 PUSH2 0x18B9 JUMP JUMPDEST DUP1 PUSH1 0x1F ADD PUSH1 0x20 DUP1 SWAP2 DIV MUL PUSH1 0x20 ADD PUSH1 0x40 MLOAD SWAP1 DUP2 ADD PUSH1 0x40 MSTORE DUP1 SWAP3 SWAP2 SWAP1 DUP2 DUP2 MSTORE PUSH1 0x20 ADD DUP3 DUP1 SLOAD PUSH2 0x951 SWAP1 PUSH2 0x18B9 JUMP JUMPDEST DUP1 ISZERO PUSH2 0x99E JUMPI DUP1 PUSH1 0x1F LT PUSH2 0x973 JUMPI PUSH2 0x100 DUP1 DUP4 SLOAD DIV MUL DUP4 MSTORE SWAP2 PUSH1 0x20 ADD SWAP2 PUSH2 0x99E JUMP JUMPDEST DUP3 ADD SWAP2 SWAP1 PUSH1 0x0 MSTORE PUSH1 0x20 PUSH1 0x0 KECCAK256 SWAP1 JUMPDEST DUP2 SLOAD DUP2 MSTORE SWAP1 PUSH1 0x1 ADD SWAP1 PUSH1 0x20 ADD DUP1 DUP4 GT PUSH2 0x981 JUMPI DUP3 SWAP1 SUB PUSH1 0x1F AND DUP3 ADD SWAP2 JUMPDEST POP POP POP POP POP DUP2 MSTORE PUSH1 0x20 ADD PUSH1 0x2 DUP3 ADD DUP1 SLOAD PUSH2 0x9B7 SWAP1 PUSH2 0x18B9 JUMP JUMPDEST DUP1 PUSH1 0x1F ADD PUSH1 0x20 DUP1 SWAP2 DIV MUL PUSH1 0x20 ADD PUSH1 0x40 MLOAD SWAP1 DUP2 ADD PUSH1 0x40 MSTORE DUP1 SWAP3 SWAP2 SWAP1 DUP2 DUP2 MSTORE PUSH1 0x20 ADD DUP3 DUP1 SLOAD PUSH2 0x9E3 SWAP1 PUSH2 0x18B9 JUMP JUMPDEST DUP1 ISZERO PUSH2 0xA30 JUMPI DUP1 PUSH1 0x1F LT PUSH2 0xA05 JUMPI PUSH2 0x100 DUP1 DUP4 SLOAD DIV MUL DUP4 MSTORE SWAP2 PUSH1 0x20 ADD SWAP2 PUSH2 0xA30 JUMP JUMPDEST DUP3 ADD SWAP2 SWAP1 PUSH1 0x0 MSTORE PUSH1 0x20 PUSH1 0x0 KECCAK256 SWAP1 JUMPDEST DUP2 SLOAD DUP2 MSTORE SWAP1 PUSH1 0x1 ADD SWAP1 PUSH1 0x20 ADD DUP1 DUP4 GT PUSH2 0xA13 JUMPI DUP3 SWAP1 SUB PUSH1 0x1F AND DUP3 ADD SWAP2 JUMPDEST POP POP POP POP POP DUP2 MSTORE PUSH1 0x20 ADD PUSH1 0x3 DUP3 ADD SLOAD DUP2 MSTORE PUSH1 0x20 ADD PUSH1 0x4 DUP3 ADD DUP1 SLOAD PUSH2 0xA53 SWAP1 PUSH2 0x18B9 JUMP JUMPDEST DUP1 PUSH1 0x1F ADD PUSH1 0x20 DUP1 SWAP2 DIV MUL PUSH1 0x20 ADD PUSH1 0x40 MLOAD SWAP1 DUP2 ADD PUSH1 0x40 MSTORE DUP1 SWAP3 SWAP2 SWAP1 DUP2 DUP2 MSTORE PUSH1 0x20 ADD DUP3 DUP1 SLOAD PUSH2 0xA7F SWAP1 PUSH2 0x18B9 JUMP JUMPDEST DUP1 ISZERO PUSH2 0xACC JUMPI DUP1 PUSH1 0x1F LT PUSH2 0xAA1 JUMPI PUSH2 0x100 DUP1 DUP4 SLOAD DIV MUL DUP4 MSTORE SWAP2 PUSH1 0x20 ADD SWAP2 PUSH2 0xACC JUMP JUMPDEST DUP3 ADD SWAP2 SWAP1 PUSH1 0x0 MSTORE PUSH1 0x20 PUSH1 0x0 KECCAK256 SWAP1 JUMPDEST DUP2 SLOAD DUP2 MSTORE SWAP1 PUSH1 0x1 ADD SWAP1 PUSH1 0x20 ADD DUP1 DUP4 GT PUSH2 0xAAF JUMPI DUP3 SWAP1 SUB PUSH1 0x1F AND DUP3 ADD SWAP2 JUMPDEST POP POP POP POP POP DUP2 MSTORE PUSH1 0x20 ADD PUSH1 0x5 DUP3 ADD DUP1 SLOAD DUP1 PUSH1 0x20 MUL PUSH1 0x20 ADD PUSH1 0x40 MLOAD SWAP1 DUP2 ADD PUSH1 0x40 MSTORE DUP1 SWAP3 SWAP2 SWAP1 DUP2 DUP2 MSTORE PUSH1 0x20 ADD PUSH1 0x0 SWAP1 JUMPDEST DUP3 DUP3 LT ISZERO PUSH2 0xC50 JUMPI DUP4 DUP3 SWAP1 PUSH1 0x0 MSTORE PUSH1 0x20 PUSH1 0x0 KECCAK256 SWAP1 PUSH1 0x2 MUL ADD PUSH1 0x40 MLOAD DUP1 PUSH1 0x40 ADD PUSH1 0x40 MSTORE SWAP1 DUP2 PUSH1 0x0 DUP3 ADD DUP1 SLOAD PUSH2 0xB2D SWAP1 PUSH2 0x18B9 JUMP JUMPDEST DUP1 PUSH1 0x1F ADD PUSH1 0x20 DUP1 SWAP2 DIV MUL PUSH1 0x20 ADD PUSH1 0x40 MLOAD SWAP1 DUP2 ADD PUSH1 0x40 MSTORE DUP1 SWAP3 SWAP2 SWAP1 DUP2 DUP2 MSTORE PUSH1 0x20 ADD DUP3 DUP1 SLOAD PUSH2 0xB59 SWAP1 PUSH2 0x18B9 JUMP JUMPDEST DUP1 ISZERO PUSH2 0xBA6 JUMPI DUP1 PUSH1 0x1F LT PUSH2 0xB7B JUMPI PUSH2 0x100 DUP1 DUP4 SLOAD DIV MUL DUP4 MSTORE SWAP2 PUSH1 0x20 ADD SWAP2 PUSH2 0xBA6 JUMP JUMPDEST DUP3 ADD SWAP2 SWAP1 PUSH1 0x0 MSTORE PUSH1 0x20 PUSH1 0x0 KECCAK256 SWAP1 JUMPDEST DUP2 SLOAD DUP2 MSTORE SWAP1 PUSH1 0x1 ADD SWAP1 PUSH1 0x20 ADD DUP1 DUP4 GT PUSH2 0xB89 JUMPI DUP3 SWAP1 SUB PUSH1 0x1F AND DUP3 ADD SWAP2 JUMPDEST POP POP POP POP POP DUP2 MSTORE PUSH1 0x20 ADD PUSH1 0x1 DUP3 ADD DUP1 SLOAD PUSH2 0xBBF SWAP1 PUSH2 0x18B9 JUMP JUMPDEST DUP1 PUSH1 0x1F ADD PUSH1 0x20 DUP1 SWAP2 DIV MUL PUSH1 0x20 ADD PUSH1 0x40 MLOAD SWAP1 DUP2 ADD PUSH1 0x40 MSTORE DUP1 SWAP3 SWAP2 SWAP1 DUP2 DUP2 MSTORE PUSH1 0x20 ADD DUP3 DUP1 SLOAD PUSH2 0xBEB SWAP1 PUSH2 0x18B9 JUMP JUMPDEST DUP1 ISZERO PUSH2 0xC38 JUMPI DUP1 PUSH1 0x1F LT PUSH2 0xC0D JUMPI PUSH2 0x100 DUP1 DUP4 SLOAD DIV MUL DUP4 MSTORE SWAP2 PUSH1 0x20 ADD SWAP2 PUSH2 0xC38 JUMP JUMPDEST DUP3 ADD SWAP2 SWAP1 PUSH1 0x0 MSTORE PUSH1 0x20 PUSH1 0x0 KECCAK256 SWAP1 JUMPDEST DUP2 SLOAD DUP2 MSTORE SWAP1 PUSH1 0x1 ADD SWAP1 PUSH1 0x20 ADD DUP1 DUP4 GT PUSH2 0xC1B JUMPI DUP3 SWAP1 SUB PUSH1 0x1F AND DUP3 ADD SWAP2 JUMPDEST POP POP POP POP POP DUP2 MSTORE POP POP DUP2 MSTORE PUSH1 0x20 ADD SWAP1 PUSH1 0x1 ADD SWAP1 PUSH2 0xAFA JUMP JUMPDEST POP POP POP POP DUP2 MSTORE POP POP SWAP8 POP POP POP POP POP POP POP POP SWAP3 SWAP2 POP POP JUMP JUMPDEST PUSH1 0x60 PUSH1 0x0 DUP1 DUP4 PUSH20 0xFFFFFFFFFFFFFFFFFFFFFFFFFFFFFFFFFFFFFFFF AND PUSH20 0xFFFFFFFFFFFFFFFFFFFFFFFFFFFFFFFFFFFFFFFF AND DUP2 MSTORE PUSH1 0x20 ADD SWAP1 DUP2 MSTORE PUSH1 0x20 ADD PUSH1 0x0 KECCAK256 DUP1 SLOAD DUP1 PUSH1 0x20 MUL PUSH1 0x20 ADD PUSH1 0x40 MLOAD SWAP1 DUP2 ADD PUSH1 0x40 MSTORE DUP1 SWAP3 SWAP2 SWAP1 DUP2 DUP2 MSTORE PUSH1 0x20 ADD DUP3 DUP1 SLOAD DUP1 ISZERO PUSH2 0xCF1 JUMPI PUSH1 0x20 MUL DUP3 ADD SWAP2 SWAP1 PUSH1 0x0 MSTORE PUSH1 0x20 PUSH1 0x0 KECCAK256 SWAP1 JUMPDEST DUP2 SLOAD DUP2 MSTORE PUSH1 0x20 ADD SWAP1 PUSH1 0x1 ADD SWAP1 DUP1 DUP4 GT PUSH2 0xCDD JUMPI JUMPDEST POP POP POP POP POP SWAP1 POP SWAP2 SWAP1 POP JUMP JUMPDEST DUP2 DUP2 PUSH1 0x0 DUP1 PUSH1 0x0 DUP5 PUSH20 0xFFFFFFFFFFFFFFFFFFFFFFFFFFFFFFFFFFFFFFFF AND PUSH20 0xFFFFFFFFFFFFFFFFFFFFFFFFFFFFFFFFFFFFFFFF AND DUP2 MSTORE PUSH1 0x20 ADD SWAP1 DUP2 MSTORE PUSH1 0x20 ADD PUSH1 0x0 KECCAK256 DUP1 SLOAD DUP1 PUSH1 0x20 MUL PUSH1 0x20 ADD PUSH1 0x40 MLOAD SWAP1 DUP2 ADD PUSH1 0x40 MSTORE DUP1 SWAP3 SWAP2 SWAP1 DUP2 DUP2 MSTORE PUSH1 0x20 ADD DUP3 DUP1 SLOAD DUP1 ISZERO PUSH2 0xD89 JUMPI PUSH1 0x20 MUL DUP3 ADD SWAP2 SWAP1 PUSH1 0x0 MSTORE PUSH1 0x20 PUSH1 0x0 KECCAK256 SWAP1 JUMPDEST DUP2 SLOAD DUP2 MSTORE PUSH1 0x20 ADD SWAP1 PUSH1 0x1 ADD SWAP1 DUP1 DUP4 GT PUSH2 0xD75 JUMPI JUMPDEST POP POP POP POP POP SWAP1 POP PUSH1 0x0 DUP1 JUMPDEST DUP3 MLOAD DUP2 LT ISZERO PUSH2 0xDDB JUMPI DUP4 DUP4 DUP3 DUP2 MLOAD DUP2 LT PUSH2 0xDB1 JUMPI PUSH2 0xDB0 PUSH2 0x179C JUMP JUMPDEST JUMPDEST PUSH1 0x20 MUL PUSH1 0x20 ADD ADD MLOAD EQ ISZERO PUSH2 0xDC8 JUMPI PUSH1 0x1 SWAP2 POP PUSH2 0xDDB JUMP JUMPDEST DUP1 DUP1 PUSH2 0xDD3 SWAP1 PUSH2 0x17FA JUMP JUMPDEST SWAP2 POP POP PUSH2 0xD94 JUMP JUMPDEST POP DUP1 ISZERO PUSH2 0xE21 JUMPI DUP4 DUP4 PUSH1 0x40 MLOAD PUSH32 0x2F96647500000000000000000000000000000000000000000000000000000000 DUP2 MSTORE PUSH1 0x4 ADD PUSH2 0xE18 SWAP3 SWAP2 SWAP1 PUSH2 0x1861 JUMP JUMPDEST PUSH1 0x40 MLOAD DUP1 SWAP2 SUB SWAP1 REVERT JUMPDEST PUSH1 0x0 DUP1 DUP8 PUSH20 0xFFFFFFFFFFFFFFFFFFFFFFFFFFFFFFFFFFFFFFFF AND PUSH20 0xFFFFFFFFFFFFFFFFFFFFFFFFFFFFFFFFFFFFFFFF AND DUP2 MSTORE PUSH1 0x20 ADD SWAP1 DUP2 MSTORE PUSH1 0x20 ADD PUSH1 0x0 KECCAK256 DUP6 SWAP1 DUP1 PUSH1 0x1 DUP2 SLOAD ADD DUP1 DUP3 SSTORE DUP1 SWAP2 POP POP PUSH1 0x1 SWAP1 SUB SWAP1 PUSH1 0x0 MSTORE PUSH1 0x20 PUSH1 0x0 KECCAK256 ADD PUSH1 0x0 SWAP1 SWAP2 SWAP1 SWAP2 SWAP1 SWAP2 POP SSTORE DUP5 DUP7 PUSH20 0xFFFFFFFFFFFFFFFFFFFFFFFFFFFFFFFFFFFFFFFF AND PUSH32 0xDDAE5033827D91D189243DDC6C9EA3E1A45DC59A9F20CAA36990F6BA2F627530 PUSH1 0x40 MLOAD PUSH1 0x40 MLOAD DUP1 SWAP2 SUB SWAP1 LOG3 POP POP POP POP POP POP JUMP JUMPDEST DUP3 DUP1 SLOAD PUSH2 0xEDE SWAP1 PUSH2 0x18B9 JUMP JUMPDEST SWAP1 PUSH1 0x0 MSTORE PUSH1 0x20 PUSH1 0x0 KECCAK256 SWAP1 PUSH1 0x1F ADD PUSH1 0x20 SWAP1 DIV DUP2 ADD SWAP3 DUP3 PUSH2 0xF00 JUMPI PUSH1 0x0 DUP6 SSTORE PUSH2 0xF47 JUMP JUMPDEST DUP3 PUSH1 0x1F LT PUSH2 0xF19 JUMPI DUP1 MLOAD PUSH1 0xFF NOT AND DUP4 DUP1 ADD OR DUP6 SSTORE PUSH2 0xF47 JUMP JUMPDEST DUP3 DUP1 ADD PUSH1 0x1 ADD DUP6 SSTORE DUP3 ISZERO PUSH2 0xF47 JUMPI SWAP2 DUP3 ADD JUMPDEST DUP3 DUP2 GT ISZERO PUSH2 0xF46 JUMPI DUP3 MLOAD DUP3 SSTORE SWAP2 PUSH1 0x20 ADD SWAP2 SWAP1 PUSH1 0x1 ADD SWAP1 PUSH2 0xF2B JUMP JUMPDEST JUMPDEST POP SWAP1 POP PUSH2 0xF54 SWAP2 SWAP1 PUSH2 0xF8E JUMP JUMPDEST POP SWAP1 JUMP JUMPDEST PUSH1 0x40 MLOAD DUP1 PUSH1 0xC0 ADD PUSH1 0x40 MSTORE DUP1 PUSH1 0x0 DUP2 MSTORE PUSH1 0x20 ADD PUSH1 0x60 DUP2 MSTORE PUSH1 0x20 ADD PUSH1 0x60 DUP2 MSTORE PUSH1 0x20 ADD PUSH1 0x0 DUP2 MSTORE PUSH1 0x20 ADD PUSH1 0x60 DUP2 MSTORE PUSH1 0x20 ADD PUSH1 0x60 DUP2 MSTORE POP SWAP1 JUMP JUMPDEST JUMPDEST DUP1 DUP3 GT ISZERO PUSH2 0xFA7 JUMPI PUSH1 0x0 DUP2 PUSH1 0x0 SWAP1 SSTORE POP PUSH1 0x1 ADD PUSH2 0xF8F JUMP JUMPDEST POP SWAP1 JUMP JUMPDEST PUSH1 0x0 PUSH1 0x40 MLOAD SWAP1 POP SWAP1 JUMP JUMPDEST PUSH1 0x0 DUP1 REVERT JUMPDEST PUSH1 0x0 DUP1 REVERT JUMPDEST PUSH1 0x0 DUP2 SWAP1 POP SWAP2 SWAP1 POP JUMP JUMPDEST PUSH2 0xFD2 DUP2 PUSH2 0xFBF JUMP JUMPDEST DUP2 EQ PUSH2 0xFDD JUMPI PUSH1 0x0 DUP1 REVERT JUMPDEST POP JUMP JUMPDEST PUSH1 0x0 DUP2 CALLDATALOAD SWAP1 POP PUSH2 0xFEF DUP2 PUSH2 0xFC9 JUMP JUMPDEST SWAP3 SWAP2 POP POP JUMP JUMPDEST PUSH1 0x0 DUP1 REVERT JUMPDEST PUSH1 0x0 DUP1 REVERT JUMPDEST PUSH1 0x0 PUSH1 0x1F NOT PUSH1 0x1F DUP4 ADD AND SWAP1 POP SWAP2 SWAP1 POP JUMP JUMPDEST PUSH32 0x4E487B7100000000000000000000000000000000000000000000000000000000 PUSH1 0x0 MSTORE PUSH1 0x41 PUSH1 0x4 MSTORE PUSH1 0x24 PUSH1 0x0 REVERT JUMPDEST PUSH2 0x1048 DUP3 PUSH2 0xFFF JUMP JUMPDEST DUP2 ADD DUP2 DUP2 LT PUSH8 0xFFFFFFFFFFFFFFFF DUP3 GT OR ISZERO PUSH2 0x1067 JUMPI PUSH2 0x1066 PUSH2 0x1010 JUMP JUMPDEST JUMPDEST DUP1 PUSH1 0x40 MSTORE POP POP POP JUMP JUMPDEST PUSH1 0x0 PUSH2 0x107A PUSH2 0xFAB JUMP JUMPDEST SWAP1 POP PUSH2 0x1086 DUP3 DUP3 PUSH2 0x103F JUMP JUMPDEST SWAP2 SWAP1 POP JUMP JUMPDEST PUSH1 0x0 PUSH8 0xFFFFFFFFFFFFFFFF DUP3 GT ISZERO PUSH2 0x10A6 JUMPI PUSH2 0x10A5 PUSH2 0x1010 JUMP JUMPDEST JUMPDEST PUSH2 0x10AF DUP3 PUSH2 0xFFF JUMP JUMPDEST SWAP1 POP PUSH1 0x20 DUP2 ADD SWAP1 POP SWAP2 SWAP1 POP JUMP JUMPDEST DUP3 DUP2 DUP4 CALLDATACOPY PUSH1 0x0 DUP4 DUP4 ADD MSTORE POP POP POP JUMP JUMPDEST PUSH1 0x0 PUSH2 0x10DE PUSH2 0x10D9 DUP5 PUSH2 0x108B JUMP JUMPDEST PUSH2 0x1070 JUMP JUMPDEST SWAP1 POP DUP3 DUP2 MSTORE PUSH1 0x20 DUP2 ADD DUP5 DUP5 DUP5 ADD GT ISZERO PUSH2 0x10FA JUMPI PUSH2 0x10F9 PUSH2 0xFFA JUMP JUMPDEST JUMPDEST PUSH2 0x1105 DUP5 DUP3 DUP6 PUSH2 0x10BC JUMP JUMPDEST POP SWAP4 SWAP3 POP POP POP JUMP JUMPDEST PUSH1 0x0 DUP3 PUSH1 0x1F DUP4 ADD SLT PUSH2 0x1122 JUMPI PUSH2 0x1121 PUSH2 0xFF5 JUMP JUMPDEST JUMPDEST DUP2 CALLDATALOAD PUSH2 0x1132 DUP5 DUP3 PUSH1 0x20 DUP7 ADD PUSH2 0x10CB JUMP JUMPDEST SWAP2 POP POP SWAP3 SWAP2 POP POP JUMP JUMPDEST PUSH1 0x0 PUSH8 0xFFFFFFFFFFFFFFFF DUP3 GT ISZERO PUSH2 0x1156 JUMPI PUSH2 0x1155 PUSH2 0x1010 JUMP JUMPDEST JUMPDEST PUSH1 0x20 DUP3 MUL SWAP1 POP PUSH1 0x20 DUP2 ADD SWAP1 POP SWAP2 SWAP1 POP JUMP JUMPDEST PUSH1 0x0 DUP1 REVERT JUMPDEST PUSH1 0x0 PUSH2 0x117F PUSH2 0x117A DUP5 PUSH2 0x113B JUMP JUMPDEST PUSH2 0x1070 JUMP JUMPDEST SWAP1 POP DUP1 DUP4 DUP3 MSTORE PUSH1 0x20 DUP3 ADD SWAP1 POP PUSH1 0x20 DUP5 MUL DUP4 ADD DUP6 DUP2 GT ISZERO PUSH2 0x11A2 JUMPI PUSH2 0x11A1 PUSH2 0x1167 JUMP JUMPDEST JUMPDEST DUP4 JUMPDEST DUP2 DUP2 LT ISZERO PUSH2 0x11E9 JUMPI DUP1 CALLDATALOAD PUSH8 0xFFFFFFFFFFFFFFFF DUP2 GT ISZERO PUSH2 0x11C7 JUMPI PUSH2 0x11C6 PUSH2 0xFF5 JUMP JUMPDEST JUMPDEST DUP1 DUP7 ADD PUSH2 0x11D4 DUP10 DUP3 PUSH2 0x110D JUMP JUMPDEST DUP6 MSTORE PUSH1 0x20 DUP6 ADD SWAP5 POP POP POP PUSH1 0x20 DUP2 ADD SWAP1 POP PUSH2 0x11A4 JUMP JUMPDEST POP POP POP SWAP4 SWAP3 POP POP POP JUMP JUMPDEST PUSH1 0x0 DUP3 PUSH1 0x1F DUP4 ADD SLT PUSH2 0x1208 JUMPI PUSH2 0x1207 PUSH2 0xFF5 JUMP JUMPDEST JUMPDEST DUP2 CALLDATALOAD PUSH2 0x1218 DUP5 DUP3 PUSH1 0x20 DUP7 ADD PUSH2 0x116C JUMP JUMPDEST SWAP2 POP POP SWAP3 SWAP2 POP POP JUMP JUMPDEST PUSH1 0x0 DUP1 PUSH1 0x0 DUP1 PUSH1 0x0 DUP1 PUSH1 0x0 DUP1 PUSH2 0x100 DUP10 DUP12 SUB SLT ISZERO PUSH2 0x1242 JUMPI PUSH2 0x1241 PUSH2 0xFB5 JUMP JUMPDEST JUMPDEST PUSH1 0x0 PUSH2 0x1250 DUP12 DUP3 DUP13 ADD PUSH2 0xFE0 JUMP JUMPDEST SWAP9 POP POP PUSH1 0x20 PUSH2 0x1261 DUP12 DUP3 DUP13 ADD PUSH2 0xFE0 JUMP JUMPDEST SWAP8 POP POP PUSH1 0x40 DUP10 ADD CALLDATALOAD PUSH8 0xFFFFFFFFFFFFFFFF DUP2 GT ISZERO PUSH2 0x1282 JUMPI PUSH2 0x1281 PUSH2 0xFBA JUMP JUMPDEST JUMPDEST PUSH2 0x128E DUP12 DUP3 DUP13 ADD PUSH2 0x110D JUMP JUMPDEST SWAP7 POP POP PUSH1 0x60 DUP10 ADD CALLDATALOAD PUSH8 0xFFFFFFFFFFFFFFFF DUP2 GT ISZERO PUSH2 0x12AF JUMPI PUSH2 0x12AE PUSH2 0xFBA JUMP JUMPDEST JUMPDEST PUSH2 0x12BB DUP12 DUP3 DUP13 ADD PUSH2 0x110D JUMP JUMPDEST SWAP6 POP POP PUSH1 0x80 PUSH2 0x12CC DUP12 DUP3 DUP13 ADD PUSH2 0xFE0 JUMP JUMPDEST SWAP5 POP POP PUSH1 0xA0 DUP10 ADD CALLDATALOAD PUSH8 0xFFFFFFFFFFFFFFFF DUP2 GT ISZERO PUSH2 0x12ED JUMPI PUSH2 0x12EC PUSH2 0xFBA JUMP JUMPDEST JUMPDEST PUSH2 0x12F9 DUP12 DUP3 DUP13 ADD PUSH2 0x110D JUMP JUMPDEST SWAP4 POP POP PUSH1 0xC0 DUP10 ADD CALLDATALOAD PUSH8 0xFFFFFFFFFFFFFFFF DUP2 GT ISZERO PUSH2 0x131A JUMPI PUSH2 0x1319 PUSH2 0xFBA JUMP JUMPDEST JUMPDEST PUSH2 0x1326 DUP12 DUP3 DUP13 ADD PUSH2 0x11F3 JUMP JUMPDEST SWAP3 POP POP PUSH1 0xE0 DUP10 ADD CALLDATALOAD PUSH8 0xFFFFFFFFFFFFFFFF DUP2 GT ISZERO PUSH2 0x1347 JUMPI PUSH2 0x1346 PUSH2 0xFBA JUMP JUMPDEST JUMPDEST PUSH2 0x1353 DUP12 DUP3 DUP13 ADD PUSH2 0x11F3 JUMP JUMPDEST SWAP2 POP POP SWAP3 SWAP6 SWAP9 POP SWAP3 SWAP6 SWAP9 SWAP1 SWAP4 SWAP7 POP JUMP JUMPDEST PUSH1 0x0 DUP1 PUSH1 0x40 DUP4 DUP6 SUB SLT ISZERO PUSH2 0x137A JUMPI PUSH2 0x1379 PUSH2 0xFB5 JUMP JUMPDEST JUMPDEST PUSH1 0x0 PUSH2 0x1388 DUP6 DUP3 DUP7 ADD PUSH2 0xFE0 JUMP JUMPDEST SWAP3 POP POP PUSH1 0x20 PUSH2 0x1399 DUP6 DUP3 DUP7 ADD PUSH2 0xFE0 JUMP JUMPDEST SWAP2 POP POP SWAP3 POP SWAP3 SWAP1 POP JUMP JUMPDEST PUSH2 0x13AC DUP2 PUSH2 0xFBF JUMP JUMPDEST DUP3 MSTORE POP POP JUMP JUMPDEST PUSH1 0x0 DUP2 MLOAD SWAP1 POP SWAP2 SWAP1 POP JUMP JUMPDEST PUSH1 0x0 DUP3 DUP3 MSTORE PUSH1 0x20 DUP3 ADD SWAP1 POP SWAP3 SWAP2 POP POP JUMP JUMPDEST PUSH1 0x0 JUMPDEST DUP4 DUP2 LT ISZERO PUSH2 0x13EC JUMPI DUP1 DUP3 ADD MLOAD DUP2 DUP5 ADD MSTORE PUSH1 0x20 DUP2 ADD SWAP1 POP PUSH2 0x13D1 JUMP JUMPDEST DUP4 DUP2 GT ISZERO PUSH2 0x13FB JUMPI PUSH1 0x0 DUP5 DUP5 ADD MSTORE JUMPDEST POP POP POP POP JUMP JUMPDEST PUSH1 0x0 PUSH2 0x140C DUP3 PUSH2 0x13B2 JUMP JUMPDEST PUSH2 0x1416 DUP2 DUP6 PUSH2 0x13BD JUMP JUMPDEST SWAP4 POP PUSH2 0x1426 DUP2 DUP6 PUSH1 0x20 DUP7 ADD PUSH2 0x13CE JUMP JUMPDEST PUSH2 0x142F DUP2 PUSH2 0xFFF JUMP JUMPDEST DUP5 ADD SWAP2 POP POP SWAP3 SWAP2 POP POP JUMP JUMPDEST PUSH1 0x0 DUP2 MLOAD SWAP1 POP SWAP2 SWAP1 POP JUMP JUMPDEST PUSH1 0x0 DUP3 DUP3 MSTORE PUSH1 0x20 DUP3 ADD SWAP1 POP SWAP3 SWAP2 POP POP JUMP JUMPDEST PUSH1 0x0 DUP2 SWAP1 POP PUSH1 0x20 DUP3 ADD SWAP1 POP SWAP2 SWAP1 POP JUMP JUMPDEST PUSH1 0x0 PUSH1 0x40 DUP4 ADD PUSH1 0x0 DUP4 ADD MLOAD DUP5 DUP3 SUB PUSH1 0x0 DUP7 ADD MSTORE PUSH2 0x1483 DUP3 DUP3 PUSH2 0x1401 JUMP JUMPDEST SWAP2 POP POP PUSH1 0x20 DUP4 ADD MLOAD DUP5 DUP3 SUB PUSH1 0x20 DUP7 ADD MSTORE PUSH2 0x149D DUP3 DUP3 PUSH2 0x1401 JUMP JUMPDEST SWAP2 POP POP DUP1 SWAP2 POP POP SWAP3 SWAP2 POP POP JUMP JUMPDEST PUSH1 0x0 PUSH2 0x14B6 DUP4 DUP4 PUSH2 0x1466 JUMP JUMPDEST SWAP1 POP SWAP3 SWAP2 POP POP JUMP JUMPDEST PUSH1 0x0 PUSH1 0x20 DUP3 ADD SWAP1 POP SWAP2 SWAP1 POP JUMP JUMPDEST PUSH1 0x0 PUSH2 0x14D6 DUP3 PUSH2 0x143A JUMP JUMPDEST PUSH2 0x14E0 DUP2 DUP6 PUSH2 0x1445 JUMP JUMPDEST SWAP4 POP DUP4 PUSH1 0x20 DUP3 MUL DUP6 ADD PUSH2 0x14F2 DUP6 PUSH2 0x1456 JUMP JUMPDEST DUP1 PUSH1 0x0 JUMPDEST DUP6 DUP2 LT ISZERO PUSH2 0x152E JUMPI DUP5 DUP5 SUB DUP10 MSTORE DUP2 MLOAD PUSH2 0x150F DUP6 DUP3 PUSH2 0x14AA JUMP JUMPDEST SWAP5 POP PUSH2 0x151A DUP4 PUSH2 0x14BE JUMP JUMPDEST SWAP3 POP PUSH1 0x20 DUP11 ADD SWAP10 POP POP PUSH1 0x1 DUP2 ADD SWAP1 POP PUSH2 0x14F6 JUMP JUMPDEST POP DUP3 SWAP8 POP DUP8 SWAP6 POP POP POP POP POP POP SWAP3 SWAP2 POP POP JUMP JUMPDEST PUSH1 0x0 PUSH1 0xC0 DUP4 ADD PUSH1 0x0 DUP4 ADD MLOAD PUSH2 0x1558 PUSH1 0x0 DUP7 ADD DUP3 PUSH2 0x13A3 JUMP JUMPDEST POP PUSH1 0x20 DUP4 ADD MLOAD DUP5 DUP3 SUB PUSH1 0x20 DUP7 ADD MSTORE PUSH2 0x1570 DUP3 DUP3 PUSH2 0x1401 JUMP JUMPDEST SWAP2 POP POP PUSH1 0x40 DUP4 ADD MLOAD DUP5 DUP3 SUB PUSH1 0x40 DUP7 ADD MSTORE PUSH2 0x158A DUP3 DUP3 PUSH2 0x1401 JUMP JUMPDEST SWAP2 POP POP PUSH1 0x60 DUP4 ADD MLOAD PUSH2 0x159F PUSH1 0x60 DUP7 ADD DUP3 PUSH2 0x13A3 JUMP JUMPDEST POP PUSH1 0x80 DUP4 ADD MLOAD DUP5 DUP3 SUB PUSH1 0x80 DUP7 ADD MSTORE PUSH2 0x15B7 DUP3 DUP3 PUSH2 0x1401 JUMP JUMPDEST SWAP2 POP POP PUSH1 0xA0 DUP4 ADD MLOAD DUP5 DUP3 SUB PUSH1 0xA0 DUP7 ADD MSTORE PUSH2 0x15D1 DUP3 DUP3 PUSH2 0x14CB JUMP JUMPDEST SWAP2 POP POP DUP1 SWAP2 POP POP SWAP3 SWAP2 POP POP JUMP JUMPDEST PUSH1 0x0 PUSH1 0x20 DUP3 ADD SWAP1 POP DUP2 DUP2 SUB PUSH1 0x0 DUP4 ADD MSTORE PUSH2 0x15F8 DUP2 DUP5 PUSH2 0x1540 JUMP JUMPDEST SWAP1 POP SWAP3 SWAP2 POP POP JUMP JUMPDEST PUSH1 0x0 PUSH20 0xFFFFFFFFFFFFFFFFFFFFFFFFFFFFFFFFFFFFFFFF DUP3 AND SWAP1 POP SWAP2 SWAP1 POP JUMP JUMPDEST PUSH1 0x0 PUSH2 0x162B DUP3 PUSH2 0x1600 JUMP JUMPDEST SWAP1 POP SWAP2 SWAP1 POP JUMP JUMPDEST PUSH2 0x163B DUP2 PUSH2 0x1620 JUMP JUMPDEST DUP2 EQ PUSH2 0x1646 JUMPI PUSH1 0x0 DUP1 REVERT JUMPDEST POP JUMP JUMPDEST PUSH1 0x0 DUP2 CALLDATALOAD SWAP1 POP PUSH2 0x1658 DUP2 PUSH2 0x1632 JUMP JUMPDEST SWAP3 SWAP2 POP POP JUMP JUMPDEST PUSH1 0x0 PUSH1 0x20 DUP3 DUP5 SUB SLT ISZERO PUSH2 0x1674 JUMPI PUSH2 0x1673 PUSH2 0xFB5 JUMP JUMPDEST JUMPDEST PUSH1 0x0 PUSH2 0x1682 DUP5 DUP3 DUP6 ADD PUSH2 0x1649 JUMP JUMPDEST SWAP2 POP POP SWAP3 SWAP2 POP POP JUMP JUMPDEST PUSH1 0x0 DUP2 MLOAD SWAP1 POP SWAP2 SWAP1 POP JUMP JUMPDEST PUSH1 0x0 DUP3 DUP3 MSTORE PUSH1 0x20 DUP3 ADD SWAP1 POP SWAP3 SWAP2 POP POP JUMP JUMPDEST PUSH1 0x0 DUP2 SWAP1 POP PUSH1 0x20 DUP3 ADD SWAP1 POP SWAP2 SWAP1 POP JUMP JUMPDEST PUSH1 0x0 PUSH2 0x16C3 DUP4 DUP4 PUSH2 0x13A3 JUMP JUMPDEST PUSH1 0x20 DUP4 ADD SWAP1 POP SWAP3 SWAP2 POP POP JUMP JUMPDEST PUSH1 0x0 PUSH1 0x20 DUP3 ADD SWAP1 POP SWAP2 SWAP1 POP JUMP JUMPDEST PUSH1 0x0 PUSH2 0x16E7 DUP3 PUSH2 0x168B JUMP JUMPDEST PUSH2 0x16F1 DUP2 DUP6 PUSH2 0x1696 JUMP JUMPDEST SWAP4 POP PUSH2 0x16FC DUP4 PUSH2 0x16A7 JUMP JUMPDEST DUP1 PUSH1 0x0 JUMPDEST DUP4 DUP2 LT ISZERO PUSH2 0x172D JUMPI DUP2 MLOAD PUSH2 0x1714 DUP9 DUP3 PUSH2 0x16B7 JUMP JUMPDEST SWAP8 POP PUSH2 0x171F DUP4 PUSH2 0x16CF JUMP JUMPDEST SWAP3 POP POP PUSH1 0x1 DUP2 ADD SWAP1 POP PUSH2 0x1700 JUMP JUMPDEST POP DUP6 SWAP4 POP POP POP POP SWAP3 SWAP2 POP POP JUMP JUMPDEST PUSH1 0x0 PUSH1 0x20 DUP3 ADD SWAP1 POP DUP2 DUP2 SUB PUSH1 0x0 DUP4 ADD MSTORE PUSH2 0x1754 DUP2 DUP5 PUSH2 0x16DC JUMP JUMPDEST SWAP1 POP SWAP3 SWAP2 POP POP JUMP JUMPDEST PUSH1 0x0 DUP1 PUSH1 0x40 DUP4 DUP6 SUB SLT ISZERO PUSH2 0x1773 JUMPI PUSH2 0x1772 PUSH2 0xFB5 JUMP JUMPDEST JUMPDEST PUSH1 0x0 PUSH2 0x1781 DUP6 DUP3 DUP7 ADD PUSH2 0x1649 JUMP JUMPDEST SWAP3 POP POP PUSH1 0x20 PUSH2 0x1792 DUP6 DUP3 DUP7 ADD PUSH2 0xFE0 JUMP JUMPDEST SWAP2 POP POP SWAP3 POP SWAP3 SWAP1 POP JUMP JUMPDEST PUSH32 0x4E487B7100000000000000000000000000000000000000000000000000000000 PUSH1 0x0 MSTORE PUSH1 0x32 PUSH1 0x4 MSTORE PUSH1 0x24 PUSH1 0x0 REVERT JUMPDEST PUSH32 0x4E487B7100000000000000000000000000000000000000000000000000000000 PUSH1 0x0 MSTORE PUSH1 0x11 PUSH1 0x4 MSTORE PUSH1 0x24 PUSH1 0x0 REVERT JUMPDEST PUSH1 0x0 PUSH2 0x1805 DUP3 PUSH2 0xFBF JUMP JUMPDEST SWAP2 POP PUSH32 0xFFFFFFFFFFFFFFFFFFFFFFFFFFFFFFFFFFFFFFFFFFFFFFFFFFFFFFFFFFFFFFFF DUP3 EQ ISZERO PUSH2 0x1838 JUMPI PUSH2 0x1837 PUSH2 0x17CB JUMP JUMPDEST JUMPDEST PUSH1 0x1 DUP3 ADD SWAP1 POP SWAP2 SWAP1 POP JUMP JUMPDEST PUSH2 0x184C DUP2 PUSH2 0x1620 JUMP JUMPDEST DUP3 MSTORE POP POP JUMP JUMPDEST PUSH2 0x185B DUP2 PUSH2 0xFBF JUMP JUMPDEST DUP3 MSTORE POP POP JUMP JUMPDEST PUSH1 0x0 PUSH1 0x40 DUP3 ADD SWAP1 POP PUSH2 0x1876 PUSH1 0x0 DUP4 ADD DUP6 PUSH2 0x1843 JUMP JUMPDEST PUSH2 0x1883 PUSH1 0x20 DUP4 ADD DUP5 PUSH2 0x1852 JUMP JUMPDEST SWAP4 SWAP3 POP POP POP JUMP JUMPDEST PUSH32 0x4E487B7100000000000000000000000000000000000000000000000000000000 PUSH1 0x0 MSTORE PUSH1 0x22 PUSH1 0x4 MSTORE PUSH1 0x24 PUSH1 0x0 REVERT JUMPDEST PUSH1 0x0 PUSH1 0x2 DUP3 DIV SWAP1 POP PUSH1 0x1 DUP3 AND DUP1 PUSH2 0x18D1 JUMPI PUSH1 0x7F DUP3 AND SWAP2 POP JUMPDEST PUSH1 0x20 DUP3 LT DUP2 EQ ISZERO PUSH2 0x18E5 JUMPI PUSH2 0x18E4 PUSH2 0x188A JUMP JUMPDEST JUMPDEST POP SWAP2 SWAP1 POP JUMP JUMPDEST PUSH1 0x0 PUSH1 0x60 DUP3 ADD SWAP1 POP PUSH2 0x1900 PUSH1 0x0 DUP4 ADD DUP7 PUSH2 0x1843 JUMP JUMPDEST PUSH2 0x190D PUSH1 0x20 DUP4 ADD DUP6 PUSH2 0x1852 JUMP JUMPDEST PUSH2 0x191A PUSH1 0x40 DUP4 ADD DUP5 PUSH2 0x1852 JUMP JUMPDEST SWAP5 SWAP4 POP POP POP POP JUMP INVALID LOG2 PUSH5 0x6970667358 0x22 SLT KECCAK256 JUMPDEST MSTORE CALLDATASIZE DUP11 DIFFICULTY CALLCODE 0xF9 SLOAD PUSH24 0xA09A386BAAF3D56FF4D1DC553EF9DA05E7D5993B2827A464 PUSH20 0x6F6C634300080800330000000000000000000000 "
        },
        "gasEstimates": {
          "creation": {
            "codeDepositCost": "1297600",
            "executionCost": "1349",
            "totalCost": "1298949"
          },
          "external": {
            "addAddressToCompany(address,uint256)": "infinite",
            "getCompanyIDFromWallet(address)": "infinite",
            "getMeetingData(uint256,uint256)": "infinite",
            "storeContent(uint256,uint256,string,string,uint256,string,string[],string[])": "infinite"
          }
        },
        "methodIdentifiers": {
          "addAddressToCompany(address,uint256)": "fb3858d5",
          "getCompanyIDFromWallet(address)": "b5ed1a0d",
          "getMeetingData(uint256,uint256)": "211a2cd4",
          "storeContent(uint256,uint256,string,string,uint256,string,string[],string[])": "1c0c8afe"
        }
      },
      "storageLayout": {
        "storage": [
          {
            "astId": 53,
            "contract": "contracts/SafeMeeting.sol:SafeMeeting",
            "label": "s_addressToCompanyID",
            "offset": 0,
            "slot": "0",
            "type": "t_mapping(t_address,t_array(t_uint256)dyn_storage)"
          },
          {
            "astId": 59,
            "contract": "contracts/SafeMeeting.sol:SafeMeeting",
            "label": "s_idToMeetingData",
            "offset": 0,
            "slot": "1",
            "type": "t_mapping(t_uint256,t_array(t_struct(MeetingData)48_storage)dyn_storage)"
          }
        ],
        "types": {
          "t_address": {
            "encoding": "inplace",
            "label": "address",
            "numberOfBytes": "20"
          },
          "t_array(t_struct(MeetingData)48_storage)dyn_storage": {
            "base": "t_struct(MeetingData)48_storage",
            "encoding": "dynamic_array",
            "label": "struct SafeMeeting.MeetingData[]",
            "numberOfBytes": "32"
          },
          "t_array(t_struct(MemberRole)33_storage)dyn_storage": {
            "base": "t_struct(MemberRole)33_storage",
            "encoding": "dynamic_array",
            "label": "struct SafeMeeting.MemberRole[]",
            "numberOfBytes": "32"
          },
          "t_array(t_uint256)dyn_storage": {
            "base": "t_uint256",
            "encoding": "dynamic_array",
            "label": "uint256[]",
            "numberOfBytes": "32"
          },
          "t_mapping(t_address,t_array(t_uint256)dyn_storage)": {
            "encoding": "mapping",
            "key": "t_address",
            "label": "mapping(address => uint256[])",
            "numberOfBytes": "32",
            "value": "t_array(t_uint256)dyn_storage"
          },
          "t_mapping(t_uint256,t_array(t_struct(MeetingData)48_storage)dyn_storage)": {
            "encoding": "mapping",
            "key": "t_uint256",
            "label": "mapping(uint256 => struct SafeMeeting.MeetingData[])",
            "numberOfBytes": "32",
            "value": "t_array(t_struct(MeetingData)48_storage)dyn_storage"
          },
          "t_string_storage": {
            "encoding": "bytes",
            "label": "string",
            "numberOfBytes": "32"
          },
          "t_struct(MeetingData)48_storage": {
            "encoding": "inplace",
            "label": "struct SafeMeeting.MeetingData",
            "members": [
              {
                "astId": 35,
                "contract": "contracts/SafeMeeting.sol:SafeMeeting",
                "label": "meetingID",
                "offset": 0,
                "slot": "0",
                "type": "t_uint256"
              },
              {
                "astId": 37,
                "contract": "contracts/SafeMeeting.sol:SafeMeeting",
                "label": "chairpersonName",
                "offset": 0,
                "slot": "1",
                "type": "t_string_storage"
              },
              {
                "astId": 39,
                "contract": "contracts/SafeMeeting.sol:SafeMeeting",
                "label": "timestamp",
                "offset": 0,
                "slot": "2",
                "type": "t_string_storage"
              },
              {
                "astId": 41,
                "contract": "contracts/SafeMeeting.sol:SafeMeeting",
                "label": "numberOfMembers",
                "offset": 0,
                "slot": "3",
                "type": "t_uint256"
              },
              {
                "astId": 43,
                "contract": "contracts/SafeMeeting.sol:SafeMeeting",
                "label": "contentHash",
                "offset": 0,
                "slot": "4",
                "type": "t_string_storage"
              },
              {
                "astId": 47,
                "contract": "contracts/SafeMeeting.sol:SafeMeeting",
                "label": "memberToRoles",
                "offset": 0,
                "slot": "5",
                "type": "t_array(t_struct(MemberRole)33_storage)dyn_storage"
              }
            ],
            "numberOfBytes": "192"
          },
          "t_struct(MemberRole)33_storage": {
            "encoding": "inplace",
            "label": "struct SafeMeeting.MemberRole",
            "members": [
              {
                "astId": 30,
                "contract": "contracts/SafeMeeting.sol:SafeMeeting",
                "label": "memberName",
                "offset": 0,
                "slot": "0",
                "type": "t_string_storage"
              },
              {
                "astId": 32,
                "contract": "contracts/SafeMeeting.sol:SafeMeeting",
                "label": "memberRole",
                "offset": 0,
                "slot": "1",
                "type": "t_string_storage"
              }
            ],
            "numberOfBytes": "64"
          },
          "t_uint256": {
            "encoding": "inplace",
            "label": "uint256",
            "numberOfBytes": "32"
          }
        }
      },
      "userdoc": {
        "kind": "user",
        "methods": {
          "addAddressToCompany(address,uint256)": {
            "notice": "Method for registering a wallet address to allow access to company data"
          },
          "getCompanyIDFromWallet(address)": {
            "notice": "Method for returning the list of company IDs accessible to the user"
          },
          "getMeetingData(uint256,uint256)": {
            "notice": ": Method for returning the requested meeting data"
          },
          "storeContent(uint256,uint256,string,string,uint256,string,string[],string[])": {
            "notice": ": Method for storing the meeting data into the specific company ID List"
          }
        },
        "notice": "This contract is for creating an untemperable storage for board meeting contents.",
        "version": 1
      }
    }
  }
}