{
  "contracts/SafeMeeting.sol": {
    "SafeMeeting": {
      "abi": [
        {
          "inputs": [
            {
              "internalType": "address",
              "name": "walletAddress",
              "type": "address"
            },
            {
              "internalType": "string",
              "name": "companyID",
              "type": "string"
            }
          ],
          "name": "SafeMeeting__AlreadyListed",
          "type": "error"
        },
        {
          "inputs": [
            {
              "internalType": "address",
              "name": "walletAddress",
              "type": "address"
            },
            {
              "internalType": "string",
              "name": "companyID",
              "type": "string"
            }
          ],
          "name": "SafeMeeting__DoesNotHaveAccess",
          "type": "error"
        },
        {
          "anonymous": false,
          "inputs": [
            {
              "indexed": true,
              "internalType": "string",
              "name": "companyID",
              "type": "string"
            },
            {
              "indexed": true,
              "internalType": "string",
              "name": "meetingID",
              "type": "string"
            },
            {
              "indexed": false,
              "internalType": "string",
              "name": "chairpersonName",
              "type": "string"
            },
            {
              "indexed": false,
              "internalType": "string",
              "name": "timestamp",
              "type": "string"
            },
            {
              "indexed": false,
              "internalType": "uint256",
              "name": "numberOfMembers",
              "type": "uint256"
            },
            {
              "indexed": true,
              "internalType": "string",
              "name": "contentHash",
              "type": "string"
            },
            {
              "components": [
                {
                  "internalType": "string",
                  "name": "memberName",
                  "type": "string"
                },
                {
                  "internalType": "string",
                  "name": "memberRole",
                  "type": "string"
                }
              ],
              "indexed": false,
              "internalType": "struct SafeMeeting.MemberRole[]",
              "name": "memberToRoles",
              "type": "tuple[]"
            }
          ],
          "name": "DataUploaded",
          "type": "event"
        },
        {
          "anonymous": false,
          "inputs": [
            {
              "indexed": true,
              "internalType": "address",
              "name": "walletAddress",
              "type": "address"
            },
            {
              "indexed": true,
              "internalType": "string",
              "name": "companyID",
              "type": "string"
            }
          ],
          "name": "WalletListed",
          "type": "event"
        },
        {
          "inputs": [
            {
              "internalType": "address",
              "name": "walletAddress",
              "type": "address"
            },
            {
              "internalType": "string",
              "name": "companyID",
              "type": "string"
            }
          ],
          "name": "addAddressToCompany",
          "outputs": [],
          "stateMutability": "nonpayable",
          "type": "function"
        },
        {
          "inputs": [
            {
              "internalType": "address",
              "name": "walletAddress",
              "type": "address"
            }
          ],
          "name": "getCompanyIDFromWallet",
          "outputs": [
            {
              "internalType": "string[]",
              "name": "",
              "type": "string[]"
            }
          ],
          "stateMutability": "view",
          "type": "function"
        },
        {
          "inputs": [
            {
              "internalType": "string",
              "name": "companyID",
              "type": "string"
            },
            {
              "internalType": "string",
              "name": "meetingID",
              "type": "string"
            }
          ],
          "name": "getMeetingData",
          "outputs": [
            {
              "components": [
                {
                  "internalType": "string",
                  "name": "meetingID",
                  "type": "string"
                },
                {
                  "internalType": "string",
                  "name": "chairpersonName",
                  "type": "string"
                },
                {
                  "internalType": "string",
                  "name": "timestamp",
                  "type": "string"
                },
                {
                  "internalType": "uint256",
                  "name": "numberOfMembers",
                  "type": "uint256"
                },
                {
                  "internalType": "string",
                  "name": "contentHash",
                  "type": "string"
                },
                {
                  "components": [
                    {
                      "internalType": "string",
                      "name": "memberName",
                      "type": "string"
                    },
                    {
                      "internalType": "string",
                      "name": "memberRole",
                      "type": "string"
                    }
                  ],
                  "internalType": "struct SafeMeeting.MemberRole[]",
                  "name": "memberToRoles",
                  "type": "tuple[]"
                }
              ],
              "internalType": "struct SafeMeeting.MeetingData",
              "name": "",
              "type": "tuple"
            }
          ],
          "stateMutability": "view",
          "type": "function"
        },
        {
          "inputs": [
            {
              "internalType": "string",
              "name": "companyID",
              "type": "string"
            },
            {
              "internalType": "string",
              "name": "meetingID",
              "type": "string"
            },
            {
              "internalType": "string",
              "name": "chairpersonName",
              "type": "string"
            },
            {
              "internalType": "string",
              "name": "timestamp",
              "type": "string"
            },
            {
              "internalType": "uint256",
              "name": "numberOfMembers",
              "type": "uint256"
            },
            {
              "internalType": "string",
              "name": "contentHash",
              "type": "string"
            },
            {
              "internalType": "string[]",
              "name": "memberNames",
              "type": "string[]"
            },
            {
              "internalType": "string[]",
              "name": "roles",
              "type": "string[]"
            }
          ],
          "name": "storeContent",
          "outputs": [],
          "stateMutability": "nonpayable",
          "type": "function"
        }
      ],
      "devdoc": {
        "author": "Wahaj Javed",
        "details": "This implements simple mappings and events to accomplish the task",
        "kind": "dev",
        "methods": {
          "addAddressToCompany(address,string)": {
            "params": {
              "companyID": ": the ID of the company",
              "walletAddress": ": The address of the wallet of the user"
            }
          },
          "getCompanyIDFromWallet(address)": {
            "params": {
              "walletAddress": ": The address of the wallet of the user"
            },
            "returns": {
              "_0": "The list of company IDs"
            }
          },
          "getMeetingData(string,string)": {
            "params": {
              "companyID": ": the ID of the company",
              "meetingID": ": the ID of the meeting to be accessed"
            },
            "returns": {
              "_0": "The requested meeting data"
            }
          },
          "storeContent(string,string,string,string,uint256,string,string[],string[])": {
            "params": {
              "chairpersonName": ": The Name of the chairperson in the meeting",
              "companyID": ": The ID of the company",
              "contentHash": ": The Hash value of the content PDF",
              "meetingID": ": The ID of the meeting recieved from the database",
              "memberNames": ": The List of the names of all members",
              "numberOfMembers": ": The number of members who attended the meeting",
              "roles": ": The List of the roles of all members",
              "timestamp": ": The time at which meeting was held"
            }
          }
        },
        "title": "Safe Meetings",
        "version": 1
      },
      "evm": {
        "bytecode": {
          "linkReferences": {},
          "object": "608060405234801561001057600080fd5b50611bdc806100206000396000f3fe608060405234801561001057600080fd5b506004361061004c5760003560e01c8063088a8df1146100515780633bae9fd71461006d578063b5ed1a0d14610089578063b965d74d146100b9575b600080fd5b61006b600480360381019061006691906110db565b6100e9565b005b61008760048036038101906100829190611253565b610375565b005b6100a3600480360381019061009e91906113cd565b610753565b6040516100b09190611544565b60405180910390f35b6100d360048036038101906100ce9190611566565b61086a565b6040516100e09190611798565b60405180910390f35b818160008060008473ffffffffffffffffffffffffffffffffffffffff1673ffffffffffffffffffffffffffffffffffffffff168152602001908152602001600020805480602002602001604051908101604052809291908181526020016000905b828210156101f757838290600052602060002001805461016a906117e9565b80601f0160208091040260200160405190810160405280929190818152602001828054610196906117e9565b80156101e35780601f106101b8576101008083540402835291602001916101e3565b820191906000526020600020905b8154815290600101906020018083116101c657829003601f168201915b50505050508152602001906001019061014b565b5050505090506000805b82518110156102565783805190602001208382815181106102255761022461181b565b5b60200260200101518051906020012014156102435760019150610256565b808061024e90611879565b915050610201565b50801561029c5783836040517fa8bd9d5400000000000000000000000000000000000000000000000000000000815260040161029392919061191b565b60405180910390fd5b6000808773ffffffffffffffffffffffffffffffffffffffff1673ffffffffffffffffffffffffffffffffffffffff16815260200190815260200160002085908060018154018082558091505060019003906000526020600020016000909190919091509080519060200190610313929190610e4a565b50846040516103229190611987565b60405180910390208673ffffffffffffffffffffffffffffffffffffffff167f7b88b3dc075cd1bfe11cd0065b9f37073247dc5c71d67ef8dcf5e67a9c525a1a60405160405180910390a3505050505050565b338860008060008473ffffffffffffffffffffffffffffffffffffffff1673ffffffffffffffffffffffffffffffffffffffff168152602001908152602001600020805480602002602001604051908101604052809291908181526020016000905b828210156104835783829060005260206000200180546103f6906117e9565b80601f0160208091040260200160405190810160405280929190818152602001828054610422906117e9565b801561046f5780601f106104445761010080835404028352916020019161046f565b820191906000526020600020905b81548152906001019060200180831161045257829003601f168201915b5050505050815260200190600101906103d7565b5050505090506000805b82518110156104e25783805190602001208382815181106104b1576104b061181b565b5b60200260200101518051906020012014156104cf57600191506104e2565b80806104da90611879565b91505061048d565b50806105275783836040517faced354100000000000000000000000000000000000000000000000000000000815260040161051e92919061191b565b60405180910390fd5b600060018d6040516105399190611987565b90815260200160405180910390208c6040516105559190611987565b908152602001604051809103902090508b81600001908051906020019061057d929190610e4a565b508a816001019080519060200190610596929190610e4a565b50898160020190805190602001906105af929190610e4a565b50888160030181905550878160040190805190602001906105d1929190610e4a565b5060005b87518110156106c1578160050160018160018154018082558091505003906000526020600020905050600060405180604001604052808a848151811061061e5761061d61181b565b5b6020026020010151815260200189848151811061063e5761063d61181b565b5b60200260200101518152509050808360050183815481106106625761066161181b565b5b9060005260206000209060020201600082015181600001908051906020019061068c929190610e4a565b5060208201518160010190805190602001906106a9929190610e4a565b509050505080806106b990611879565b9150506105d5565b50876040516106d09190611987565b60405180910390208c6040516106e69190611987565b60405180910390208e6040516106fc9190611987565b60405180910390207f8d196dc01f2267f2a629b926538918c052cdf7358631a43299259213ffa76b8b8e8e8e8760050160405161073c9493929190611b4c565b60405180910390a450505050505050505050505050565b60606000808373ffffffffffffffffffffffffffffffffffffffff1673ffffffffffffffffffffffffffffffffffffffff168152602001908152602001600020805480602002602001604051908101604052809291908181526020016000905b8282101561085f5783829060005260206000200180546107d2906117e9565b80601f01602080910402602001604051908101604052809291908181526020018280546107fe906117e9565b801561084b5780601f106108205761010080835404028352916020019161084b565b820191906000526020600020905b81548152906001019060200180831161082e57829003601f168201915b5050505050815260200190600101906107b3565b505050509050919050565b610872610ed0565b338360008060008473ffffffffffffffffffffffffffffffffffffffff1673ffffffffffffffffffffffffffffffffffffffff168152602001908152602001600020805480602002602001604051908101604052809291908181526020016000905b828210156109805783829060005260206000200180546108f3906117e9565b80601f016020809104026020016040519081016040528092919081815260200182805461091f906117e9565b801561096c5780601f106109415761010080835404028352916020019161096c565b820191906000526020600020905b81548152906001019060200180831161094f57829003601f168201915b5050505050815260200190600101906108d4565b5050505090506000805b82518110156109df5783805190602001208382815181106109ae576109ad61181b565b5b60200260200101518051906020012014156109cc57600191506109df565b80806109d790611879565b91505061098a565b5080610a245783836040517faced3541000000000000000000000000000000000000000000000000000000008152600401610a1b92919061191b565b60405180910390fd5b600187604051610a349190611987565b908152602001604051809103902086604051610a509190611987565b90815260200160405180910390206040518060c0016040529081600082018054610a79906117e9565b80601f0160208091040260200160405190810160405280929190818152602001828054610aa5906117e9565b8015610af25780601f10610ac757610100808354040283529160200191610af2565b820191906000526020600020905b815481529060010190602001808311610ad557829003601f168201915b50505050508152602001600182018054610b0b906117e9565b80601f0160208091040260200160405190810160405280929190818152602001828054610b37906117e9565b8015610b845780601f10610b5957610100808354040283529160200191610b84565b820191906000526020600020905b815481529060010190602001808311610b6757829003601f168201915b50505050508152602001600282018054610b9d906117e9565b80601f0160208091040260200160405190810160405280929190818152602001828054610bc9906117e9565b8015610c165780601f10610beb57610100808354040283529160200191610c16565b820191906000526020600020905b815481529060010190602001808311610bf957829003601f168201915b5050505050815260200160038201548152602001600482018054610c39906117e9565b80601f0160208091040260200160405190810160405280929190818152602001828054610c65906117e9565b8015610cb25780601f10610c8757610100808354040283529160200191610cb2565b820191906000526020600020905b815481529060010190602001808311610c9557829003601f168201915b5050505050815260200160058201805480602002602001604051908101604052809291908181526020016000905b82821015610e365783829060005260206000209060020201604051806040016040529081600082018054610d13906117e9565b80601f0160208091040260200160405190810160405280929190818152602001828054610d3f906117e9565b8015610d8c5780601f10610d6157610100808354040283529160200191610d8c565b820191906000526020600020905b815481529060010190602001808311610d6f57829003601f168201915b50505050508152602001600182018054610da5906117e9565b80601f0160208091040260200160405190810160405280929190818152602001828054610dd1906117e9565b8015610e1e5780601f10610df357610100808354040283529160200191610e1e565b820191906000526020600020905b815481529060010190602001808311610e0157829003601f168201915b50505050508152505081526020019060010190610ce0565b505050508152505094505050505092915050565b828054610e56906117e9565b90600052602060002090601f016020900481019282610e785760008555610ebf565b82601f10610e9157805160ff1916838001178555610ebf565b82800160010185558215610ebf579182015b82811115610ebe578251825591602001919060010190610ea3565b5b509050610ecc9190610f06565b5090565b6040518060c001604052806060815260200160608152602001606081526020016000815260200160608152602001606081525090565b5b80821115610f1f576000816000905550600101610f07565b5090565b6000604051905090565b600080fd5b600080fd5b600073ffffffffffffffffffffffffffffffffffffffff82169050919050565b6000610f6282610f37565b9050919050565b610f7281610f57565b8114610f7d57600080fd5b50565b600081359050610f8f81610f69565b92915050565b600080fd5b600080fd5b6000601f19601f8301169050919050565b7f4e487b7100000000000000000000000000000000000000000000000000000000600052604160045260246000fd5b610fe882610f9f565b810181811067ffffffffffffffff8211171561100757611006610fb0565b5b80604052505050565b600061101a610f23565b90506110268282610fdf565b919050565b600067ffffffffffffffff82111561104657611045610fb0565b5b61104f82610f9f565b9050602081019050919050565b82818337600083830152505050565b600061107e6110798461102b565b611010565b90508281526020810184848401111561109a57611099610f9a565b5b6110a584828561105c565b509392505050565b600082601f8301126110c2576110c1610f95565b5b81356110d284826020860161106b565b91505092915050565b600080604083850312156110f2576110f1610f2d565b5b600061110085828601610f80565b925050602083013567ffffffffffffffff81111561112157611120610f32565b5b61112d858286016110ad565b9150509250929050565b6000819050919050565b61114a81611137565b811461115557600080fd5b50565b60008135905061116781611141565b92915050565b600067ffffffffffffffff82111561118857611187610fb0565b5b602082029050602081019050919050565b600080fd5b60006111b16111ac8461116d565b611010565b905080838252602082019050602084028301858111156111d4576111d3611199565b5b835b8181101561121b57803567ffffffffffffffff8111156111f9576111f8610f95565b5b80860161120689826110ad565b855260208501945050506020810190506111d6565b5050509392505050565b600082601f83011261123a57611239610f95565b5b813561124a84826020860161119e565b91505092915050565b600080600080600080600080610100898b03121561127457611273610f2d565b5b600089013567ffffffffffffffff81111561129257611291610f32565b5b61129e8b828c016110ad565b985050602089013567ffffffffffffffff8111156112bf576112be610f32565b5b6112cb8b828c016110ad565b975050604089013567ffffffffffffffff8111156112ec576112eb610f32565b5b6112f88b828c016110ad565b965050606089013567ffffffffffffffff81111561131957611318610f32565b5b6113258b828c016110ad565b95505060806113368b828c01611158565b94505060a089013567ffffffffffffffff81111561135757611356610f32565b5b6113638b828c016110ad565b93505060c089013567ffffffffffffffff81111561138457611383610f32565b5b6113908b828c01611225565b92505060e089013567ffffffffffffffff8111156113b1576113b0610f32565b5b6113bd8b828c01611225565b9150509295985092959890939650565b6000602082840312156113e3576113e2610f2d565b5b60006113f184828501610f80565b91505092915050565b600081519050919050565b600082825260208201905092915050565b6000819050602082019050919050565b600081519050919050565b600082825260208201905092915050565b60005b83811015611460578082015181840152602081019050611445565b8381111561146f576000848401525b50505050565b600061148082611426565b61148a8185611431565b935061149a818560208601611442565b6114a381610f9f565b840191505092915050565b60006114ba8383611475565b905092915050565b6000602082019050919050565b60006114da826113fa565b6114e48185611405565b9350836020820285016114f685611416565b8060005b85811015611532578484038952815161151385826114ae565b945061151e836114c2565b925060208a019950506001810190506114fa565b50829750879550505050505092915050565b6000602082019050818103600083015261155e81846114cf565b905092915050565b6000806040838503121561157d5761157c610f2d565b5b600083013567ffffffffffffffff81111561159b5761159a610f32565b5b6115a7858286016110ad565b925050602083013567ffffffffffffffff8111156115c8576115c7610f32565b5b6115d4858286016110ad565b9150509250929050565b6115e781611137565b82525050565b600081519050919050565b600082825260208201905092915050565b6000819050602082019050919050565b600060408301600083015184820360008601526116368282611475565b915050602083015184820360208601526116508282611475565b9150508091505092915050565b60006116698383611619565b905092915050565b6000602082019050919050565b6000611689826115ed565b61169381856115f8565b9350836020820285016116a585611609565b8060005b858110156116e157848403895281516116c2858261165d565b94506116cd83611671565b925060208a019950506001810190506116a9565b50829750879550505050505092915050565b600060c08301600083015184820360008601526117108282611475565b9150506020830151848203602086015261172a8282611475565b915050604083015184820360408601526117448282611475565b915050606083015161175960608601826115de565b50608083015184820360808601526117718282611475565b91505060a083015184820360a086015261178b828261167e565b9150508091505092915050565b600060208201905081810360008301526117b281846116f3565b905092915050565b7f4e487b7100000000000000000000000000000000000000000000000000000000600052602260045260246000fd5b6000600282049050600182168061180157607f821691505b60208210811415611815576118146117ba565b5b50919050565b7f4e487b7100000000000000000000000000000000000000000000000000000000600052603260045260246000fd5b7f4e487b7100000000000000000000000000000000000000000000000000000000600052601160045260246000fd5b600061188482611137565b91507fffffffffffffffffffffffffffffffffffffffffffffffffffffffffffffffff8214156118b7576118b661184a565b5b600182019050919050565b6118cb81610f57565b82525050565b600082825260208201905092915050565b60006118ed82611426565b6118f781856118d1565b9350611907818560208601611442565b61191081610f9f565b840191505092915050565b600060408201905061193060008301856118c2565b818103602083015261194281846118e2565b90509392505050565b600081905092915050565b600061196182611426565b61196b818561194b565b935061197b818560208601611442565b80840191505092915050565b60006119938284611956565b915081905092915050565b6119a781611137565b82525050565b600081549050919050565b600082825260208201905092915050565b60008190508160005260206000209050919050565b60008190508160005260206000209050919050565b60008154611a00816117e9565b611a0a8186611431565b94506001821660008114611a255760018114611a3757611a6a565b60ff1983168652602086019350611a6a565b611a40856119de565b60005b83811015611a6257815481890152600182019150602081019050611a43565b808801955050505b50505092915050565b60006040830160008084018583036000870152611a9083826119f3565b925050600184018583036020870152611aa983826119f3565b925050819250505092915050565b6000611ac38383611a73565b905092915050565b6000600282019050919050565b6000611ae3826119ad565b611aed81856119b8565b935083602082028501611aff856119c9565b8060005b85811015611b3a57848403895281611b1b8582611ab7565b9450611b2683611acb565b925060208a01995050600181019050611b03565b50829750879550505050505092915050565b60006080820190508181036000830152611b6681876118e2565b90508181036020830152611b7a81866118e2565b9050611b89604083018561199e565b8181036060830152611b9b8184611ad8565b90509594505050505056fea26469706673582212200383f5fe906eefdbdb05fbbb36476940d90d9783bcff0adca7572cd50da2159264736f6c63430008080033",
          "opcodes": "PUSH1 0x80 PUSH1 0x40 MSTORE CALLVALUE DUP1 ISZERO PUSH2 0x10 JUMPI PUSH1 0x0 DUP1 REVERT JUMPDEST POP PUSH2 0x1BDC DUP1 PUSH2 0x20 PUSH1 0x0 CODECOPY PUSH1 0x0 RETURN INVALID PUSH1 0x80 PUSH1 0x40 MSTORE CALLVALUE DUP1 ISZERO PUSH2 0x10 JUMPI PUSH1 0x0 DUP1 REVERT JUMPDEST POP PUSH1 0x4 CALLDATASIZE LT PUSH2 0x4C JUMPI PUSH1 0x0 CALLDATALOAD PUSH1 0xE0 SHR DUP1 PUSH4 0x88A8DF1 EQ PUSH2 0x51 JUMPI DUP1 PUSH4 0x3BAE9FD7 EQ PUSH2 0x6D JUMPI DUP1 PUSH4 0xB5ED1A0D EQ PUSH2 0x89 JUMPI DUP1 PUSH4 0xB965D74D EQ PUSH2 0xB9 JUMPI JUMPDEST PUSH1 0x0 DUP1 REVERT JUMPDEST PUSH2 0x6B PUSH1 0x4 DUP1 CALLDATASIZE SUB DUP2 ADD SWAP1 PUSH2 0x66 SWAP2 SWAP1 PUSH2 0x10DB JUMP JUMPDEST PUSH2 0xE9 JUMP JUMPDEST STOP JUMPDEST PUSH2 0x87 PUSH1 0x4 DUP1 CALLDATASIZE SUB DUP2 ADD SWAP1 PUSH2 0x82 SWAP2 SWAP1 PUSH2 0x1253 JUMP JUMPDEST PUSH2 0x375 JUMP JUMPDEST STOP JUMPDEST PUSH2 0xA3 PUSH1 0x4 DUP1 CALLDATASIZE SUB DUP2 ADD SWAP1 PUSH2 0x9E SWAP2 SWAP1 PUSH2 0x13CD JUMP JUMPDEST PUSH2 0x753 JUMP JUMPDEST PUSH1 0x40 MLOAD PUSH2 0xB0 SWAP2 SWAP1 PUSH2 0x1544 JUMP JUMPDEST PUSH1 0x40 MLOAD DUP1 SWAP2 SUB SWAP1 RETURN JUMPDEST PUSH2 0xD3 PUSH1 0x4 DUP1 CALLDATASIZE SUB DUP2 ADD SWAP1 PUSH2 0xCE SWAP2 SWAP1 PUSH2 0x1566 JUMP JUMPDEST PUSH2 0x86A JUMP JUMPDEST PUSH1 0x40 MLOAD PUSH2 0xE0 SWAP2 SWAP1 PUSH2 0x1798 JUMP JUMPDEST PUSH1 0x40 MLOAD DUP1 SWAP2 SUB SWAP1 RETURN JUMPDEST DUP2 DUP2 PUSH1 0x0 DUP1 PUSH1 0x0 DUP5 PUSH20 0xFFFFFFFFFFFFFFFFFFFFFFFFFFFFFFFFFFFFFFFF AND PUSH20 0xFFFFFFFFFFFFFFFFFFFFFFFFFFFFFFFFFFFFFFFF AND DUP2 MSTORE PUSH1 0x20 ADD SWAP1 DUP2 MSTORE PUSH1 0x20 ADD PUSH1 0x0 KECCAK256 DUP1 SLOAD DUP1 PUSH1 0x20 MUL PUSH1 0x20 ADD PUSH1 0x40 MLOAD SWAP1 DUP2 ADD PUSH1 0x40 MSTORE DUP1 SWAP3 SWAP2 SWAP1 DUP2 DUP2 MSTORE PUSH1 0x20 ADD PUSH1 0x0 SWAP1 JUMPDEST DUP3 DUP3 LT ISZERO PUSH2 0x1F7 JUMPI DUP4 DUP3 SWAP1 PUSH1 0x0 MSTORE PUSH1 0x20 PUSH1 0x0 KECCAK256 ADD DUP1 SLOAD PUSH2 0x16A SWAP1 PUSH2 0x17E9 JUMP JUMPDEST DUP1 PUSH1 0x1F ADD PUSH1 0x20 DUP1 SWAP2 DIV MUL PUSH1 0x20 ADD PUSH1 0x40 MLOAD SWAP1 DUP2 ADD PUSH1 0x40 MSTORE DUP1 SWAP3 SWAP2 SWAP1 DUP2 DUP2 MSTORE PUSH1 0x20 ADD DUP3 DUP1 SLOAD PUSH2 0x196 SWAP1 PUSH2 0x17E9 JUMP JUMPDEST DUP1 ISZERO PUSH2 0x1E3 JUMPI DUP1 PUSH1 0x1F LT PUSH2 0x1B8 JUMPI PUSH2 0x100 DUP1 DUP4 SLOAD DIV MUL DUP4 MSTORE SWAP2 PUSH1 0x20 ADD SWAP2 PUSH2 0x1E3 JUMP JUMPDEST DUP3 ADD SWAP2 SWAP1 PUSH1 0x0 MSTORE PUSH1 0x20 PUSH1 0x0 KECCAK256 SWAP1 JUMPDEST DUP2 SLOAD DUP2 MSTORE SWAP1 PUSH1 0x1 ADD SWAP1 PUSH1 0x20 ADD DUP1 DUP4 GT PUSH2 0x1C6 JUMPI DUP3 SWAP1 SUB PUSH1 0x1F AND DUP3 ADD SWAP2 JUMPDEST POP POP POP POP POP DUP2 MSTORE PUSH1 0x20 ADD SWAP1 PUSH1 0x1 ADD SWAP1 PUSH2 0x14B JUMP JUMPDEST POP POP POP POP SWAP1 POP PUSH1 0x0 DUP1 JUMPDEST DUP3 MLOAD DUP2 LT ISZERO PUSH2 0x256 JUMPI DUP4 DUP1 MLOAD SWAP1 PUSH1 0x20 ADD KECCAK256 DUP4 DUP3 DUP2 MLOAD DUP2 LT PUSH2 0x225 JUMPI PUSH2 0x224 PUSH2 0x181B JUMP JUMPDEST JUMPDEST PUSH1 0x20 MUL PUSH1 0x20 ADD ADD MLOAD DUP1 MLOAD SWAP1 PUSH1 0x20 ADD KECCAK256 EQ ISZERO PUSH2 0x243 JUMPI PUSH1 0x1 SWAP2 POP PUSH2 0x256 JUMP JUMPDEST DUP1 DUP1 PUSH2 0x24E SWAP1 PUSH2 0x1879 JUMP JUMPDEST SWAP2 POP POP PUSH2 0x201 JUMP JUMPDEST POP DUP1 ISZERO PUSH2 0x29C JUMPI DUP4 DUP4 PUSH1 0x40 MLOAD PUSH32 0xA8BD9D5400000000000000000000000000000000000000000000000000000000 DUP2 MSTORE PUSH1 0x4 ADD PUSH2 0x293 SWAP3 SWAP2 SWAP1 PUSH2 0x191B JUMP JUMPDEST PUSH1 0x40 MLOAD DUP1 SWAP2 SUB SWAP1 REVERT JUMPDEST PUSH1 0x0 DUP1 DUP8 PUSH20 0xFFFFFFFFFFFFFFFFFFFFFFFFFFFFFFFFFFFFFFFF AND PUSH20 0xFFFFFFFFFFFFFFFFFFFFFFFFFFFFFFFFFFFFFFFF AND DUP2 MSTORE PUSH1 0x20 ADD SWAP1 DUP2 MSTORE PUSH1 0x20 ADD PUSH1 0x0 KECCAK256 DUP6 SWAP1 DUP1 PUSH1 0x1 DUP2 SLOAD ADD DUP1 DUP3 SSTORE DUP1 SWAP2 POP POP PUSH1 0x1 SWAP1 SUB SWAP1 PUSH1 0x0 MSTORE PUSH1 0x20 PUSH1 0x0 KECCAK256 ADD PUSH1 0x0 SWAP1 SWAP2 SWAP1 SWAP2 SWAP1 SWAP2 POP SWAP1 DUP1 MLOAD SWAP1 PUSH1 0x20 ADD SWAP1 PUSH2 0x313 SWAP3 SWAP2 SWAP1 PUSH2 0xE4A JUMP JUMPDEST POP DUP5 PUSH1 0x40 MLOAD PUSH2 0x322 SWAP2 SWAP1 PUSH2 0x1987 JUMP JUMPDEST PUSH1 0x40 MLOAD DUP1 SWAP2 SUB SWAP1 KECCAK256 DUP7 PUSH20 0xFFFFFFFFFFFFFFFFFFFFFFFFFFFFFFFFFFFFFFFF AND PUSH32 0x7B88B3DC075CD1BFE11CD0065B9F37073247DC5C71D67EF8DCF5E67A9C525A1A PUSH1 0x40 MLOAD PUSH1 0x40 MLOAD DUP1 SWAP2 SUB SWAP1 LOG3 POP POP POP POP POP POP JUMP JUMPDEST CALLER DUP9 PUSH1 0x0 DUP1 PUSH1 0x0 DUP5 PUSH20 0xFFFFFFFFFFFFFFFFFFFFFFFFFFFFFFFFFFFFFFFF AND PUSH20 0xFFFFFFFFFFFFFFFFFFFFFFFFFFFFFFFFFFFFFFFF AND DUP2 MSTORE PUSH1 0x20 ADD SWAP1 DUP2 MSTORE PUSH1 0x20 ADD PUSH1 0x0 KECCAK256 DUP1 SLOAD DUP1 PUSH1 0x20 MUL PUSH1 0x20 ADD PUSH1 0x40 MLOAD SWAP1 DUP2 ADD PUSH1 0x40 MSTORE DUP1 SWAP3 SWAP2 SWAP1 DUP2 DUP2 MSTORE PUSH1 0x20 ADD PUSH1 0x0 SWAP1 JUMPDEST DUP3 DUP3 LT ISZERO PUSH2 0x483 JUMPI DUP4 DUP3 SWAP1 PUSH1 0x0 MSTORE PUSH1 0x20 PUSH1 0x0 KECCAK256 ADD DUP1 SLOAD PUSH2 0x3F6 SWAP1 PUSH2 0x17E9 JUMP JUMPDEST DUP1 PUSH1 0x1F ADD PUSH1 0x20 DUP1 SWAP2 DIV MUL PUSH1 0x20 ADD PUSH1 0x40 MLOAD SWAP1 DUP2 ADD PUSH1 0x40 MSTORE DUP1 SWAP3 SWAP2 SWAP1 DUP2 DUP2 MSTORE PUSH1 0x20 ADD DUP3 DUP1 SLOAD PUSH2 0x422 SWAP1 PUSH2 0x17E9 JUMP JUMPDEST DUP1 ISZERO PUSH2 0x46F JUMPI DUP1 PUSH1 0x1F LT PUSH2 0x444 JUMPI PUSH2 0x100 DUP1 DUP4 SLOAD DIV MUL DUP4 MSTORE SWAP2 PUSH1 0x20 ADD SWAP2 PUSH2 0x46F JUMP JUMPDEST DUP3 ADD SWAP2 SWAP1 PUSH1 0x0 MSTORE PUSH1 0x20 PUSH1 0x0 KECCAK256 SWAP1 JUMPDEST DUP2 SLOAD DUP2 MSTORE SWAP1 PUSH1 0x1 ADD SWAP1 PUSH1 0x20 ADD DUP1 DUP4 GT PUSH2 0x452 JUMPI DUP3 SWAP1 SUB PUSH1 0x1F AND DUP3 ADD SWAP2 JUMPDEST POP POP POP POP POP DUP2 MSTORE PUSH1 0x20 ADD SWAP1 PUSH1 0x1 ADD SWAP1 PUSH2 0x3D7 JUMP JUMPDEST POP POP POP POP SWAP1 POP PUSH1 0x0 DUP1 JUMPDEST DUP3 MLOAD DUP2 LT ISZERO PUSH2 0x4E2 JUMPI DUP4 DUP1 MLOAD SWAP1 PUSH1 0x20 ADD KECCAK256 DUP4 DUP3 DUP2 MLOAD DUP2 LT PUSH2 0x4B1 JUMPI PUSH2 0x4B0 PUSH2 0x181B JUMP JUMPDEST JUMPDEST PUSH1 0x20 MUL PUSH1 0x20 ADD ADD MLOAD DUP1 MLOAD SWAP1 PUSH1 0x20 ADD KECCAK256 EQ ISZERO PUSH2 0x4CF JUMPI PUSH1 0x1 SWAP2 POP PUSH2 0x4E2 JUMP JUMPDEST DUP1 DUP1 PUSH2 0x4DA SWAP1 PUSH2 0x1879 JUMP JUMPDEST SWAP2 POP POP PUSH2 0x48D JUMP JUMPDEST POP DUP1 PUSH2 0x527 JUMPI DUP4 DUP4 PUSH1 0x40 MLOAD PUSH32 0xACED354100000000000000000000000000000000000000000000000000000000 DUP2 MSTORE PUSH1 0x4 ADD PUSH2 0x51E SWAP3 SWAP2 SWAP1 PUSH2 0x191B JUMP JUMPDEST PUSH1 0x40 MLOAD DUP1 SWAP2 SUB SWAP1 REVERT JUMPDEST PUSH1 0x0 PUSH1 0x1 DUP14 PUSH1 0x40 MLOAD PUSH2 0x539 SWAP2 SWAP1 PUSH2 0x1987 JUMP JUMPDEST SWAP1 DUP2 MSTORE PUSH1 0x20 ADD PUSH1 0x40 MLOAD DUP1 SWAP2 SUB SWAP1 KECCAK256 DUP13 PUSH1 0x40 MLOAD PUSH2 0x555 SWAP2 SWAP1 PUSH2 0x1987 JUMP JUMPDEST SWAP1 DUP2 MSTORE PUSH1 0x20 ADD PUSH1 0x40 MLOAD DUP1 SWAP2 SUB SWAP1 KECCAK256 SWAP1 POP DUP12 DUP2 PUSH1 0x0 ADD SWAP1 DUP1 MLOAD SWAP1 PUSH1 0x20 ADD SWAP1 PUSH2 0x57D SWAP3 SWAP2 SWAP1 PUSH2 0xE4A JUMP JUMPDEST POP DUP11 DUP2 PUSH1 0x1 ADD SWAP1 DUP1 MLOAD SWAP1 PUSH1 0x20 ADD SWAP1 PUSH2 0x596 SWAP3 SWAP2 SWAP1 PUSH2 0xE4A JUMP JUMPDEST POP DUP10 DUP2 PUSH1 0x2 ADD SWAP1 DUP1 MLOAD SWAP1 PUSH1 0x20 ADD SWAP1 PUSH2 0x5AF SWAP3 SWAP2 SWAP1 PUSH2 0xE4A JUMP JUMPDEST POP DUP9 DUP2 PUSH1 0x3 ADD DUP2 SWAP1 SSTORE POP DUP8 DUP2 PUSH1 0x4 ADD SWAP1 DUP1 MLOAD SWAP1 PUSH1 0x20 ADD SWAP1 PUSH2 0x5D1 SWAP3 SWAP2 SWAP1 PUSH2 0xE4A JUMP JUMPDEST POP PUSH1 0x0 JUMPDEST DUP8 MLOAD DUP2 LT ISZERO PUSH2 0x6C1 JUMPI DUP2 PUSH1 0x5 ADD PUSH1 0x1 DUP2 PUSH1 0x1 DUP2 SLOAD ADD DUP1 DUP3 SSTORE DUP1 SWAP2 POP POP SUB SWAP1 PUSH1 0x0 MSTORE PUSH1 0x20 PUSH1 0x0 KECCAK256 SWAP1 POP POP PUSH1 0x0 PUSH1 0x40 MLOAD DUP1 PUSH1 0x40 ADD PUSH1 0x40 MSTORE DUP1 DUP11 DUP5 DUP2 MLOAD DUP2 LT PUSH2 0x61E JUMPI PUSH2 0x61D PUSH2 0x181B JUMP JUMPDEST JUMPDEST PUSH1 0x20 MUL PUSH1 0x20 ADD ADD MLOAD DUP2 MSTORE PUSH1 0x20 ADD DUP10 DUP5 DUP2 MLOAD DUP2 LT PUSH2 0x63E JUMPI PUSH2 0x63D PUSH2 0x181B JUMP JUMPDEST JUMPDEST PUSH1 0x20 MUL PUSH1 0x20 ADD ADD MLOAD DUP2 MSTORE POP SWAP1 POP DUP1 DUP4 PUSH1 0x5 ADD DUP4 DUP2 SLOAD DUP2 LT PUSH2 0x662 JUMPI PUSH2 0x661 PUSH2 0x181B JUMP JUMPDEST JUMPDEST SWAP1 PUSH1 0x0 MSTORE PUSH1 0x20 PUSH1 0x0 KECCAK256 SWAP1 PUSH1 0x2 MUL ADD PUSH1 0x0 DUP3 ADD MLOAD DUP2 PUSH1 0x0 ADD SWAP1 DUP1 MLOAD SWAP1 PUSH1 0x20 ADD SWAP1 PUSH2 0x68C SWAP3 SWAP2 SWAP1 PUSH2 0xE4A JUMP JUMPDEST POP PUSH1 0x20 DUP3 ADD MLOAD DUP2 PUSH1 0x1 ADD SWAP1 DUP1 MLOAD SWAP1 PUSH1 0x20 ADD SWAP1 PUSH2 0x6A9 SWAP3 SWAP2 SWAP1 PUSH2 0xE4A JUMP JUMPDEST POP SWAP1 POP POP POP DUP1 DUP1 PUSH2 0x6B9 SWAP1 PUSH2 0x1879 JUMP JUMPDEST SWAP2 POP POP PUSH2 0x5D5 JUMP JUMPDEST POP DUP8 PUSH1 0x40 MLOAD PUSH2 0x6D0 SWAP2 SWAP1 PUSH2 0x1987 JUMP JUMPDEST PUSH1 0x40 MLOAD DUP1 SWAP2 SUB SWAP1 KECCAK256 DUP13 PUSH1 0x40 MLOAD PUSH2 0x6E6 SWAP2 SWAP1 PUSH2 0x1987 JUMP JUMPDEST PUSH1 0x40 MLOAD DUP1 SWAP2 SUB SWAP1 KECCAK256 DUP15 PUSH1 0x40 MLOAD PUSH2 0x6FC SWAP2 SWAP1 PUSH2 0x1987 JUMP JUMPDEST PUSH1 0x40 MLOAD DUP1 SWAP2 SUB SWAP1 KECCAK256 PUSH32 0x8D196DC01F2267F2A629B926538918C052CDF7358631A43299259213FFA76B8B DUP15 DUP15 DUP15 DUP8 PUSH1 0x5 ADD PUSH1 0x40 MLOAD PUSH2 0x73C SWAP5 SWAP4 SWAP3 SWAP2 SWAP1 PUSH2 0x1B4C JUMP JUMPDEST PUSH1 0x40 MLOAD DUP1 SWAP2 SUB SWAP1 LOG4 POP POP POP POP POP POP POP POP POP POP POP POP POP JUMP JUMPDEST PUSH1 0x60 PUSH1 0x0 DUP1 DUP4 PUSH20 0xFFFFFFFFFFFFFFFFFFFFFFFFFFFFFFFFFFFFFFFF AND PUSH20 0xFFFFFFFFFFFFFFFFFFFFFFFFFFFFFFFFFFFFFFFF AND DUP2 MSTORE PUSH1 0x20 ADD SWAP1 DUP2 MSTORE PUSH1 0x20 ADD PUSH1 0x0 KECCAK256 DUP1 SLOAD DUP1 PUSH1 0x20 MUL PUSH1 0x20 ADD PUSH1 0x40 MLOAD SWAP1 DUP2 ADD PUSH1 0x40 MSTORE DUP1 SWAP3 SWAP2 SWAP1 DUP2 DUP2 MSTORE PUSH1 0x20 ADD PUSH1 0x0 SWAP1 JUMPDEST DUP3 DUP3 LT ISZERO PUSH2 0x85F JUMPI DUP4 DUP3 SWAP1 PUSH1 0x0 MSTORE PUSH1 0x20 PUSH1 0x0 KECCAK256 ADD DUP1 SLOAD PUSH2 0x7D2 SWAP1 PUSH2 0x17E9 JUMP JUMPDEST DUP1 PUSH1 0x1F ADD PUSH1 0x20 DUP1 SWAP2 DIV MUL PUSH1 0x20 ADD PUSH1 0x40 MLOAD SWAP1 DUP2 ADD PUSH1 0x40 MSTORE DUP1 SWAP3 SWAP2 SWAP1 DUP2 DUP2 MSTORE PUSH1 0x20 ADD DUP3 DUP1 SLOAD PUSH2 0x7FE SWAP1 PUSH2 0x17E9 JUMP JUMPDEST DUP1 ISZERO PUSH2 0x84B JUMPI DUP1 PUSH1 0x1F LT PUSH2 0x820 JUMPI PUSH2 0x100 DUP1 DUP4 SLOAD DIV MUL DUP4 MSTORE SWAP2 PUSH1 0x20 ADD SWAP2 PUSH2 0x84B JUMP JUMPDEST DUP3 ADD SWAP2 SWAP1 PUSH1 0x0 MSTORE PUSH1 0x20 PUSH1 0x0 KECCAK256 SWAP1 JUMPDEST DUP2 SLOAD DUP2 MSTORE SWAP1 PUSH1 0x1 ADD SWAP1 PUSH1 0x20 ADD DUP1 DUP4 GT PUSH2 0x82E JUMPI DUP3 SWAP1 SUB PUSH1 0x1F AND DUP3 ADD SWAP2 JUMPDEST POP POP POP POP POP DUP2 MSTORE PUSH1 0x20 ADD SWAP1 PUSH1 0x1 ADD SWAP1 PUSH2 0x7B3 JUMP JUMPDEST POP POP POP POP SWAP1 POP SWAP2 SWAP1 POP JUMP JUMPDEST PUSH2 0x872 PUSH2 0xED0 JUMP JUMPDEST CALLER DUP4 PUSH1 0x0 DUP1 PUSH1 0x0 DUP5 PUSH20 0xFFFFFFFFFFFFFFFFFFFFFFFFFFFFFFFFFFFFFFFF AND PUSH20 0xFFFFFFFFFFFFFFFFFFFFFFFFFFFFFFFFFFFFFFFF AND DUP2 MSTORE PUSH1 0x20 ADD SWAP1 DUP2 MSTORE PUSH1 0x20 ADD PUSH1 0x0 KECCAK256 DUP1 SLOAD DUP1 PUSH1 0x20 MUL PUSH1 0x20 ADD PUSH1 0x40 MLOAD SWAP1 DUP2 ADD PUSH1 0x40 MSTORE DUP1 SWAP3 SWAP2 SWAP1 DUP2 DUP2 MSTORE PUSH1 0x20 ADD PUSH1 0x0 SWAP1 JUMPDEST DUP3 DUP3 LT ISZERO PUSH2 0x980 JUMPI DUP4 DUP3 SWAP1 PUSH1 0x0 MSTORE PUSH1 0x20 PUSH1 0x0 KECCAK256 ADD DUP1 SLOAD PUSH2 0x8F3 SWAP1 PUSH2 0x17E9 JUMP JUMPDEST DUP1 PUSH1 0x1F ADD PUSH1 0x20 DUP1 SWAP2 DIV MUL PUSH1 0x20 ADD PUSH1 0x40 MLOAD SWAP1 DUP2 ADD PUSH1 0x40 MSTORE DUP1 SWAP3 SWAP2 SWAP1 DUP2 DUP2 MSTORE PUSH1 0x20 ADD DUP3 DUP1 SLOAD PUSH2 0x91F SWAP1 PUSH2 0x17E9 JUMP JUMPDEST DUP1 ISZERO PUSH2 0x96C JUMPI DUP1 PUSH1 0x1F LT PUSH2 0x941 JUMPI PUSH2 0x100 DUP1 DUP4 SLOAD DIV MUL DUP4 MSTORE SWAP2 PUSH1 0x20 ADD SWAP2 PUSH2 0x96C JUMP JUMPDEST DUP3 ADD SWAP2 SWAP1 PUSH1 0x0 MSTORE PUSH1 0x20 PUSH1 0x0 KECCAK256 SWAP1 JUMPDEST DUP2 SLOAD DUP2 MSTORE SWAP1 PUSH1 0x1 ADD SWAP1 PUSH1 0x20 ADD DUP1 DUP4 GT PUSH2 0x94F JUMPI DUP3 SWAP1 SUB PUSH1 0x1F AND DUP3 ADD SWAP2 JUMPDEST POP POP POP POP POP DUP2 MSTORE PUSH1 0x20 ADD SWAP1 PUSH1 0x1 ADD SWAP1 PUSH2 0x8D4 JUMP JUMPDEST POP POP POP POP SWAP1 POP PUSH1 0x0 DUP1 JUMPDEST DUP3 MLOAD DUP2 LT ISZERO PUSH2 0x9DF JUMPI DUP4 DUP1 MLOAD SWAP1 PUSH1 0x20 ADD KECCAK256 DUP4 DUP3 DUP2 MLOAD DUP2 LT PUSH2 0x9AE JUMPI PUSH2 0x9AD PUSH2 0x181B JUMP JUMPDEST JUMPDEST PUSH1 0x20 MUL PUSH1 0x20 ADD ADD MLOAD DUP1 MLOAD SWAP1 PUSH1 0x20 ADD KECCAK256 EQ ISZERO PUSH2 0x9CC JUMPI PUSH1 0x1 SWAP2 POP PUSH2 0x9DF JUMP JUMPDEST DUP1 DUP1 PUSH2 0x9D7 SWAP1 PUSH2 0x1879 JUMP JUMPDEST SWAP2 POP POP PUSH2 0x98A JUMP JUMPDEST POP DUP1 PUSH2 0xA24 JUMPI DUP4 DUP4 PUSH1 0x40 MLOAD PUSH32 0xACED354100000000000000000000000000000000000000000000000000000000 DUP2 MSTORE PUSH1 0x4 ADD PUSH2 0xA1B SWAP3 SWAP2 SWAP1 PUSH2 0x191B JUMP JUMPDEST PUSH1 0x40 MLOAD DUP1 SWAP2 SUB SWAP1 REVERT JUMPDEST PUSH1 0x1 DUP8 PUSH1 0x40 MLOAD PUSH2 0xA34 SWAP2 SWAP1 PUSH2 0x1987 JUMP JUMPDEST SWAP1 DUP2 MSTORE PUSH1 0x20 ADD PUSH1 0x40 MLOAD DUP1 SWAP2 SUB SWAP1 KECCAK256 DUP7 PUSH1 0x40 MLOAD PUSH2 0xA50 SWAP2 SWAP1 PUSH2 0x1987 JUMP JUMPDEST SWAP1 DUP2 MSTORE PUSH1 0x20 ADD PUSH1 0x40 MLOAD DUP1 SWAP2 SUB SWAP1 KECCAK256 PUSH1 0x40 MLOAD DUP1 PUSH1 0xC0 ADD PUSH1 0x40 MSTORE SWAP1 DUP2 PUSH1 0x0 DUP3 ADD DUP1 SLOAD PUSH2 0xA79 SWAP1 PUSH2 0x17E9 JUMP JUMPDEST DUP1 PUSH1 0x1F ADD PUSH1 0x20 DUP1 SWAP2 DIV MUL PUSH1 0x20 ADD PUSH1 0x40 MLOAD SWAP1 DUP2 ADD PUSH1 0x40 MSTORE DUP1 SWAP3 SWAP2 SWAP1 DUP2 DUP2 MSTORE PUSH1 0x20 ADD DUP3 DUP1 SLOAD PUSH2 0xAA5 SWAP1 PUSH2 0x17E9 JUMP JUMPDEST DUP1 ISZERO PUSH2 0xAF2 JUMPI DUP1 PUSH1 0x1F LT PUSH2 0xAC7 JUMPI PUSH2 0x100 DUP1 DUP4 SLOAD DIV MUL DUP4 MSTORE SWAP2 PUSH1 0x20 ADD SWAP2 PUSH2 0xAF2 JUMP JUMPDEST DUP3 ADD SWAP2 SWAP1 PUSH1 0x0 MSTORE PUSH1 0x20 PUSH1 0x0 KECCAK256 SWAP1 JUMPDEST DUP2 SLOAD DUP2 MSTORE SWAP1 PUSH1 0x1 ADD SWAP1 PUSH1 0x20 ADD DUP1 DUP4 GT PUSH2 0xAD5 JUMPI DUP3 SWAP1 SUB PUSH1 0x1F AND DUP3 ADD SWAP2 JUMPDEST POP POP POP POP POP DUP2 MSTORE PUSH1 0x20 ADD PUSH1 0x1 DUP3 ADD DUP1 SLOAD PUSH2 0xB0B SWAP1 PUSH2 0x17E9 JUMP JUMPDEST DUP1 PUSH1 0x1F ADD PUSH1 0x20 DUP1 SWAP2 DIV MUL PUSH1 0x20 ADD PUSH1 0x40 MLOAD SWAP1 DUP2 ADD PUSH1 0x40 MSTORE DUP1 SWAP3 SWAP2 SWAP1 DUP2 DUP2 MSTORE PUSH1 0x20 ADD DUP3 DUP1 SLOAD PUSH2 0xB37 SWAP1 PUSH2 0x17E9 JUMP JUMPDEST DUP1 ISZERO PUSH2 0xB84 JUMPI DUP1 PUSH1 0x1F LT PUSH2 0xB59 JUMPI PUSH2 0x100 DUP1 DUP4 SLOAD DIV MUL DUP4 MSTORE SWAP2 PUSH1 0x20 ADD SWAP2 PUSH2 0xB84 JUMP JUMPDEST DUP3 ADD SWAP2 SWAP1 PUSH1 0x0 MSTORE PUSH1 0x20 PUSH1 0x0 KECCAK256 SWAP1 JUMPDEST DUP2 SLOAD DUP2 MSTORE SWAP1 PUSH1 0x1 ADD SWAP1 PUSH1 0x20 ADD DUP1 DUP4 GT PUSH2 0xB67 JUMPI DUP3 SWAP1 SUB PUSH1 0x1F AND DUP3 ADD SWAP2 JUMPDEST POP POP POP POP POP DUP2 MSTORE PUSH1 0x20 ADD PUSH1 0x2 DUP3 ADD DUP1 SLOAD PUSH2 0xB9D SWAP1 PUSH2 0x17E9 JUMP JUMPDEST DUP1 PUSH1 0x1F ADD PUSH1 0x20 DUP1 SWAP2 DIV MUL PUSH1 0x20 ADD PUSH1 0x40 MLOAD SWAP1 DUP2 ADD PUSH1 0x40 MSTORE DUP1 SWAP3 SWAP2 SWAP1 DUP2 DUP2 MSTORE PUSH1 0x20 ADD DUP3 DUP1 SLOAD PUSH2 0xBC9 SWAP1 PUSH2 0x17E9 JUMP JUMPDEST DUP1 ISZERO PUSH2 0xC16 JUMPI DUP1 PUSH1 0x1F LT PUSH2 0xBEB JUMPI PUSH2 0x100 DUP1 DUP4 SLOAD DIV MUL DUP4 MSTORE SWAP2 PUSH1 0x20 ADD SWAP2 PUSH2 0xC16 JUMP JUMPDEST DUP3 ADD SWAP2 SWAP1 PUSH1 0x0 MSTORE PUSH1 0x20 PUSH1 0x0 KECCAK256 SWAP1 JUMPDEST DUP2 SLOAD DUP2 MSTORE SWAP1 PUSH1 0x1 ADD SWAP1 PUSH1 0x20 ADD DUP1 DUP4 GT PUSH2 0xBF9 JUMPI DUP3 SWAP1 SUB PUSH1 0x1F AND DUP3 ADD SWAP2 JUMPDEST POP POP POP POP POP DUP2 MSTORE PUSH1 0x20 ADD PUSH1 0x3 DUP3 ADD SLOAD DUP2 MSTORE PUSH1 0x20 ADD PUSH1 0x4 DUP3 ADD DUP1 SLOAD PUSH2 0xC39 SWAP1 PUSH2 0x17E9 JUMP JUMPDEST DUP1 PUSH1 0x1F ADD PUSH1 0x20 DUP1 SWAP2 DIV MUL PUSH1 0x20 ADD PUSH1 0x40 MLOAD SWAP1 DUP2 ADD PUSH1 0x40 MSTORE DUP1 SWAP3 SWAP2 SWAP1 DUP2 DUP2 MSTORE PUSH1 0x20 ADD DUP3 DUP1 SLOAD PUSH2 0xC65 SWAP1 PUSH2 0x17E9 JUMP JUMPDEST DUP1 ISZERO PUSH2 0xCB2 JUMPI DUP1 PUSH1 0x1F LT PUSH2 0xC87 JUMPI PUSH2 0x100 DUP1 DUP4 SLOAD DIV MUL DUP4 MSTORE SWAP2 PUSH1 0x20 ADD SWAP2 PUSH2 0xCB2 JUMP JUMPDEST DUP3 ADD SWAP2 SWAP1 PUSH1 0x0 MSTORE PUSH1 0x20 PUSH1 0x0 KECCAK256 SWAP1 JUMPDEST DUP2 SLOAD DUP2 MSTORE SWAP1 PUSH1 0x1 ADD SWAP1 PUSH1 0x20 ADD DUP1 DUP4 GT PUSH2 0xC95 JUMPI DUP3 SWAP1 SUB PUSH1 0x1F AND DUP3 ADD SWAP2 JUMPDEST POP POP POP POP POP DUP2 MSTORE PUSH1 0x20 ADD PUSH1 0x5 DUP3 ADD DUP1 SLOAD DUP1 PUSH1 0x20 MUL PUSH1 0x20 ADD PUSH1 0x40 MLOAD SWAP1 DUP2 ADD PUSH1 0x40 MSTORE DUP1 SWAP3 SWAP2 SWAP1 DUP2 DUP2 MSTORE PUSH1 0x20 ADD PUSH1 0x0 SWAP1 JUMPDEST DUP3 DUP3 LT ISZERO PUSH2 0xE36 JUMPI DUP4 DUP3 SWAP1 PUSH1 0x0 MSTORE PUSH1 0x20 PUSH1 0x0 KECCAK256 SWAP1 PUSH1 0x2 MUL ADD PUSH1 0x40 MLOAD DUP1 PUSH1 0x40 ADD PUSH1 0x40 MSTORE SWAP1 DUP2 PUSH1 0x0 DUP3 ADD DUP1 SLOAD PUSH2 0xD13 SWAP1 PUSH2 0x17E9 JUMP JUMPDEST DUP1 PUSH1 0x1F ADD PUSH1 0x20 DUP1 SWAP2 DIV MUL PUSH1 0x20 ADD PUSH1 0x40 MLOAD SWAP1 DUP2 ADD PUSH1 0x40 MSTORE DUP1 SWAP3 SWAP2 SWAP1 DUP2 DUP2 MSTORE PUSH1 0x20 ADD DUP3 DUP1 SLOAD PUSH2 0xD3F SWAP1 PUSH2 0x17E9 JUMP JUMPDEST DUP1 ISZERO PUSH2 0xD8C JUMPI DUP1 PUSH1 0x1F LT PUSH2 0xD61 JUMPI PUSH2 0x100 DUP1 DUP4 SLOAD DIV MUL DUP4 MSTORE SWAP2 PUSH1 0x20 ADD SWAP2 PUSH2 0xD8C JUMP JUMPDEST DUP3 ADD SWAP2 SWAP1 PUSH1 0x0 MSTORE PUSH1 0x20 PUSH1 0x0 KECCAK256 SWAP1 JUMPDEST DUP2 SLOAD DUP2 MSTORE SWAP1 PUSH1 0x1 ADD SWAP1 PUSH1 0x20 ADD DUP1 DUP4 GT PUSH2 0xD6F JUMPI DUP3 SWAP1 SUB PUSH1 0x1F AND DUP3 ADD SWAP2 JUMPDEST POP POP POP POP POP DUP2 MSTORE PUSH1 0x20 ADD PUSH1 0x1 DUP3 ADD DUP1 SLOAD PUSH2 0xDA5 SWAP1 PUSH2 0x17E9 JUMP JUMPDEST DUP1 PUSH1 0x1F ADD PUSH1 0x20 DUP1 SWAP2 DIV MUL PUSH1 0x20 ADD PUSH1 0x40 MLOAD SWAP1 DUP2 ADD PUSH1 0x40 MSTORE DUP1 SWAP3 SWAP2 SWAP1 DUP2 DUP2 MSTORE PUSH1 0x20 ADD DUP3 DUP1 SLOAD PUSH2 0xDD1 SWAP1 PUSH2 0x17E9 JUMP JUMPDEST DUP1 ISZERO PUSH2 0xE1E JUMPI DUP1 PUSH1 0x1F LT PUSH2 0xDF3 JUMPI PUSH2 0x100 DUP1 DUP4 SLOAD DIV MUL DUP4 MSTORE SWAP2 PUSH1 0x20 ADD SWAP2 PUSH2 0xE1E JUMP JUMPDEST DUP3 ADD SWAP2 SWAP1 PUSH1 0x0 MSTORE PUSH1 0x20 PUSH1 0x0 KECCAK256 SWAP1 JUMPDEST DUP2 SLOAD DUP2 MSTORE SWAP1 PUSH1 0x1 ADD SWAP1 PUSH1 0x20 ADD DUP1 DUP4 GT PUSH2 0xE01 JUMPI DUP3 SWAP1 SUB PUSH1 0x1F AND DUP3 ADD SWAP2 JUMPDEST POP POP POP POP POP DUP2 MSTORE POP POP DUP2 MSTORE PUSH1 0x20 ADD SWAP1 PUSH1 0x1 ADD SWAP1 PUSH2 0xCE0 JUMP JUMPDEST POP POP POP POP DUP2 MSTORE POP POP SWAP5 POP POP POP POP POP SWAP3 SWAP2 POP POP JUMP JUMPDEST DUP3 DUP1 SLOAD PUSH2 0xE56 SWAP1 PUSH2 0x17E9 JUMP JUMPDEST SWAP1 PUSH1 0x0 MSTORE PUSH1 0x20 PUSH1 0x0 KECCAK256 SWAP1 PUSH1 0x1F ADD PUSH1 0x20 SWAP1 DIV DUP2 ADD SWAP3 DUP3 PUSH2 0xE78 JUMPI PUSH1 0x0 DUP6 SSTORE PUSH2 0xEBF JUMP JUMPDEST DUP3 PUSH1 0x1F LT PUSH2 0xE91 JUMPI DUP1 MLOAD PUSH1 0xFF NOT AND DUP4 DUP1 ADD OR DUP6 SSTORE PUSH2 0xEBF JUMP JUMPDEST DUP3 DUP1 ADD PUSH1 0x1 ADD DUP6 SSTORE DUP3 ISZERO PUSH2 0xEBF JUMPI SWAP2 DUP3 ADD JUMPDEST DUP3 DUP2 GT ISZERO PUSH2 0xEBE JUMPI DUP3 MLOAD DUP3 SSTORE SWAP2 PUSH1 0x20 ADD SWAP2 SWAP1 PUSH1 0x1 ADD SWAP1 PUSH2 0xEA3 JUMP JUMPDEST JUMPDEST POP SWAP1 POP PUSH2 0xECC SWAP2 SWAP1 PUSH2 0xF06 JUMP JUMPDEST POP SWAP1 JUMP JUMPDEST PUSH1 0x40 MLOAD DUP1 PUSH1 0xC0 ADD PUSH1 0x40 MSTORE DUP1 PUSH1 0x60 DUP2 MSTORE PUSH1 0x20 ADD PUSH1 0x60 DUP2 MSTORE PUSH1 0x20 ADD PUSH1 0x60 DUP2 MSTORE PUSH1 0x20 ADD PUSH1 0x0 DUP2 MSTORE PUSH1 0x20 ADD PUSH1 0x60 DUP2 MSTORE PUSH1 0x20 ADD PUSH1 0x60 DUP2 MSTORE POP SWAP1 JUMP JUMPDEST JUMPDEST DUP1 DUP3 GT ISZERO PUSH2 0xF1F JUMPI PUSH1 0x0 DUP2 PUSH1 0x0 SWAP1 SSTORE POP PUSH1 0x1 ADD PUSH2 0xF07 JUMP JUMPDEST POP SWAP1 JUMP JUMPDEST PUSH1 0x0 PUSH1 0x40 MLOAD SWAP1 POP SWAP1 JUMP JUMPDEST PUSH1 0x0 DUP1 REVERT JUMPDEST PUSH1 0x0 DUP1 REVERT JUMPDEST PUSH1 0x0 PUSH20 0xFFFFFFFFFFFFFFFFFFFFFFFFFFFFFFFFFFFFFFFF DUP3 AND SWAP1 POP SWAP2 SWAP1 POP JUMP JUMPDEST PUSH1 0x0 PUSH2 0xF62 DUP3 PUSH2 0xF37 JUMP JUMPDEST SWAP1 POP SWAP2 SWAP1 POP JUMP JUMPDEST PUSH2 0xF72 DUP2 PUSH2 0xF57 JUMP JUMPDEST DUP2 EQ PUSH2 0xF7D JUMPI PUSH1 0x0 DUP1 REVERT JUMPDEST POP JUMP JUMPDEST PUSH1 0x0 DUP2 CALLDATALOAD SWAP1 POP PUSH2 0xF8F DUP2 PUSH2 0xF69 JUMP JUMPDEST SWAP3 SWAP2 POP POP JUMP JUMPDEST PUSH1 0x0 DUP1 REVERT JUMPDEST PUSH1 0x0 DUP1 REVERT JUMPDEST PUSH1 0x0 PUSH1 0x1F NOT PUSH1 0x1F DUP4 ADD AND SWAP1 POP SWAP2 SWAP1 POP JUMP JUMPDEST PUSH32 0x4E487B7100000000000000000000000000000000000000000000000000000000 PUSH1 0x0 MSTORE PUSH1 0x41 PUSH1 0x4 MSTORE PUSH1 0x24 PUSH1 0x0 REVERT JUMPDEST PUSH2 0xFE8 DUP3 PUSH2 0xF9F JUMP JUMPDEST DUP2 ADD DUP2 DUP2 LT PUSH8 0xFFFFFFFFFFFFFFFF DUP3 GT OR ISZERO PUSH2 0x1007 JUMPI PUSH2 0x1006 PUSH2 0xFB0 JUMP JUMPDEST JUMPDEST DUP1 PUSH1 0x40 MSTORE POP POP POP JUMP JUMPDEST PUSH1 0x0 PUSH2 0x101A PUSH2 0xF23 JUMP JUMPDEST SWAP1 POP PUSH2 0x1026 DUP3 DUP3 PUSH2 0xFDF JUMP JUMPDEST SWAP2 SWAP1 POP JUMP JUMPDEST PUSH1 0x0 PUSH8 0xFFFFFFFFFFFFFFFF DUP3 GT ISZERO PUSH2 0x1046 JUMPI PUSH2 0x1045 PUSH2 0xFB0 JUMP JUMPDEST JUMPDEST PUSH2 0x104F DUP3 PUSH2 0xF9F JUMP JUMPDEST SWAP1 POP PUSH1 0x20 DUP2 ADD SWAP1 POP SWAP2 SWAP1 POP JUMP JUMPDEST DUP3 DUP2 DUP4 CALLDATACOPY PUSH1 0x0 DUP4 DUP4 ADD MSTORE POP POP POP JUMP JUMPDEST PUSH1 0x0 PUSH2 0x107E PUSH2 0x1079 DUP5 PUSH2 0x102B JUMP JUMPDEST PUSH2 0x1010 JUMP JUMPDEST SWAP1 POP DUP3 DUP2 MSTORE PUSH1 0x20 DUP2 ADD DUP5 DUP5 DUP5 ADD GT ISZERO PUSH2 0x109A JUMPI PUSH2 0x1099 PUSH2 0xF9A JUMP JUMPDEST JUMPDEST PUSH2 0x10A5 DUP5 DUP3 DUP6 PUSH2 0x105C JUMP JUMPDEST POP SWAP4 SWAP3 POP POP POP JUMP JUMPDEST PUSH1 0x0 DUP3 PUSH1 0x1F DUP4 ADD SLT PUSH2 0x10C2 JUMPI PUSH2 0x10C1 PUSH2 0xF95 JUMP JUMPDEST JUMPDEST DUP2 CALLDATALOAD PUSH2 0x10D2 DUP5 DUP3 PUSH1 0x20 DUP7 ADD PUSH2 0x106B JUMP JUMPDEST SWAP2 POP POP SWAP3 SWAP2 POP POP JUMP JUMPDEST PUSH1 0x0 DUP1 PUSH1 0x40 DUP4 DUP6 SUB SLT ISZERO PUSH2 0x10F2 JUMPI PUSH2 0x10F1 PUSH2 0xF2D JUMP JUMPDEST JUMPDEST PUSH1 0x0 PUSH2 0x1100 DUP6 DUP3 DUP7 ADD PUSH2 0xF80 JUMP JUMPDEST SWAP3 POP POP PUSH1 0x20 DUP4 ADD CALLDATALOAD PUSH8 0xFFFFFFFFFFFFFFFF DUP2 GT ISZERO PUSH2 0x1121 JUMPI PUSH2 0x1120 PUSH2 0xF32 JUMP JUMPDEST JUMPDEST PUSH2 0x112D DUP6 DUP3 DUP7 ADD PUSH2 0x10AD JUMP JUMPDEST SWAP2 POP POP SWAP3 POP SWAP3 SWAP1 POP JUMP JUMPDEST PUSH1 0x0 DUP2 SWAP1 POP SWAP2 SWAP1 POP JUMP JUMPDEST PUSH2 0x114A DUP2 PUSH2 0x1137 JUMP JUMPDEST DUP2 EQ PUSH2 0x1155 JUMPI PUSH1 0x0 DUP1 REVERT JUMPDEST POP JUMP JUMPDEST PUSH1 0x0 DUP2 CALLDATALOAD SWAP1 POP PUSH2 0x1167 DUP2 PUSH2 0x1141 JUMP JUMPDEST SWAP3 SWAP2 POP POP JUMP JUMPDEST PUSH1 0x0 PUSH8 0xFFFFFFFFFFFFFFFF DUP3 GT ISZERO PUSH2 0x1188 JUMPI PUSH2 0x1187 PUSH2 0xFB0 JUMP JUMPDEST JUMPDEST PUSH1 0x20 DUP3 MUL SWAP1 POP PUSH1 0x20 DUP2 ADD SWAP1 POP SWAP2 SWAP1 POP JUMP JUMPDEST PUSH1 0x0 DUP1 REVERT JUMPDEST PUSH1 0x0 PUSH2 0x11B1 PUSH2 0x11AC DUP5 PUSH2 0x116D JUMP JUMPDEST PUSH2 0x1010 JUMP JUMPDEST SWAP1 POP DUP1 DUP4 DUP3 MSTORE PUSH1 0x20 DUP3 ADD SWAP1 POP PUSH1 0x20 DUP5 MUL DUP4 ADD DUP6 DUP2 GT ISZERO PUSH2 0x11D4 JUMPI PUSH2 0x11D3 PUSH2 0x1199 JUMP JUMPDEST JUMPDEST DUP4 JUMPDEST DUP2 DUP2 LT ISZERO PUSH2 0x121B JUMPI DUP1 CALLDATALOAD PUSH8 0xFFFFFFFFFFFFFFFF DUP2 GT ISZERO PUSH2 0x11F9 JUMPI PUSH2 0x11F8 PUSH2 0xF95 JUMP JUMPDEST JUMPDEST DUP1 DUP7 ADD PUSH2 0x1206 DUP10 DUP3 PUSH2 0x10AD JUMP JUMPDEST DUP6 MSTORE PUSH1 0x20 DUP6 ADD SWAP5 POP POP POP PUSH1 0x20 DUP2 ADD SWAP1 POP PUSH2 0x11D6 JUMP JUMPDEST POP POP POP SWAP4 SWAP3 POP POP POP JUMP JUMPDEST PUSH1 0x0 DUP3 PUSH1 0x1F DUP4 ADD SLT PUSH2 0x123A JUMPI PUSH2 0x1239 PUSH2 0xF95 JUMP JUMPDEST JUMPDEST DUP2 CALLDATALOAD PUSH2 0x124A DUP5 DUP3 PUSH1 0x20 DUP7 ADD PUSH2 0x119E JUMP JUMPDEST SWAP2 POP POP SWAP3 SWAP2 POP POP JUMP JUMPDEST PUSH1 0x0 DUP1 PUSH1 0x0 DUP1 PUSH1 0x0 DUP1 PUSH1 0x0 DUP1 PUSH2 0x100 DUP10 DUP12 SUB SLT ISZERO PUSH2 0x1274 JUMPI PUSH2 0x1273 PUSH2 0xF2D JUMP JUMPDEST JUMPDEST PUSH1 0x0 DUP10 ADD CALLDATALOAD PUSH8 0xFFFFFFFFFFFFFFFF DUP2 GT ISZERO PUSH2 0x1292 JUMPI PUSH2 0x1291 PUSH2 0xF32 JUMP JUMPDEST JUMPDEST PUSH2 0x129E DUP12 DUP3 DUP13 ADD PUSH2 0x10AD JUMP JUMPDEST SWAP9 POP POP PUSH1 0x20 DUP10 ADD CALLDATALOAD PUSH8 0xFFFFFFFFFFFFFFFF DUP2 GT ISZERO PUSH2 0x12BF JUMPI PUSH2 0x12BE PUSH2 0xF32 JUMP JUMPDEST JUMPDEST PUSH2 0x12CB DUP12 DUP3 DUP13 ADD PUSH2 0x10AD JUMP JUMPDEST SWAP8 POP POP PUSH1 0x40 DUP10 ADD CALLDATALOAD PUSH8 0xFFFFFFFFFFFFFFFF DUP2 GT ISZERO PUSH2 0x12EC JUMPI PUSH2 0x12EB PUSH2 0xF32 JUMP JUMPDEST JUMPDEST PUSH2 0x12F8 DUP12 DUP3 DUP13 ADD PUSH2 0x10AD JUMP JUMPDEST SWAP7 POP POP PUSH1 0x60 DUP10 ADD CALLDATALOAD PUSH8 0xFFFFFFFFFFFFFFFF DUP2 GT ISZERO PUSH2 0x1319 JUMPI PUSH2 0x1318 PUSH2 0xF32 JUMP JUMPDEST JUMPDEST PUSH2 0x1325 DUP12 DUP3 DUP13 ADD PUSH2 0x10AD JUMP JUMPDEST SWAP6 POP POP PUSH1 0x80 PUSH2 0x1336 DUP12 DUP3 DUP13 ADD PUSH2 0x1158 JUMP JUMPDEST SWAP5 POP POP PUSH1 0xA0 DUP10 ADD CALLDATALOAD PUSH8 0xFFFFFFFFFFFFFFFF DUP2 GT ISZERO PUSH2 0x1357 JUMPI PUSH2 0x1356 PUSH2 0xF32 JUMP JUMPDEST JUMPDEST PUSH2 0x1363 DUP12 DUP3 DUP13 ADD PUSH2 0x10AD JUMP JUMPDEST SWAP4 POP POP PUSH1 0xC0 DUP10 ADD CALLDATALOAD PUSH8 0xFFFFFFFFFFFFFFFF DUP2 GT ISZERO PUSH2 0x1384 JUMPI PUSH2 0x1383 PUSH2 0xF32 JUMP JUMPDEST JUMPDEST PUSH2 0x1390 DUP12 DUP3 DUP13 ADD PUSH2 0x1225 JUMP JUMPDEST SWAP3 POP POP PUSH1 0xE0 DUP10 ADD CALLDATALOAD PUSH8 0xFFFFFFFFFFFFFFFF DUP2 GT ISZERO PUSH2 0x13B1 JUMPI PUSH2 0x13B0 PUSH2 0xF32 JUMP JUMPDEST JUMPDEST PUSH2 0x13BD DUP12 DUP3 DUP13 ADD PUSH2 0x1225 JUMP JUMPDEST SWAP2 POP POP SWAP3 SWAP6 SWAP9 POP SWAP3 SWAP6 SWAP9 SWAP1 SWAP4 SWAP7 POP JUMP JUMPDEST PUSH1 0x0 PUSH1 0x20 DUP3 DUP5 SUB SLT ISZERO PUSH2 0x13E3 JUMPI PUSH2 0x13E2 PUSH2 0xF2D JUMP JUMPDEST JUMPDEST PUSH1 0x0 PUSH2 0x13F1 DUP5 DUP3 DUP6 ADD PUSH2 0xF80 JUMP JUMPDEST SWAP2 POP POP SWAP3 SWAP2 POP POP JUMP JUMPDEST PUSH1 0x0 DUP2 MLOAD SWAP1 POP SWAP2 SWAP1 POP JUMP JUMPDEST PUSH1 0x0 DUP3 DUP3 MSTORE PUSH1 0x20 DUP3 ADD SWAP1 POP SWAP3 SWAP2 POP POP JUMP JUMPDEST PUSH1 0x0 DUP2 SWAP1 POP PUSH1 0x20 DUP3 ADD SWAP1 POP SWAP2 SWAP1 POP JUMP JUMPDEST PUSH1 0x0 DUP2 MLOAD SWAP1 POP SWAP2 SWAP1 POP JUMP JUMPDEST PUSH1 0x0 DUP3 DUP3 MSTORE PUSH1 0x20 DUP3 ADD SWAP1 POP SWAP3 SWAP2 POP POP JUMP JUMPDEST PUSH1 0x0 JUMPDEST DUP4 DUP2 LT ISZERO PUSH2 0x1460 JUMPI DUP1 DUP3 ADD MLOAD DUP2 DUP5 ADD MSTORE PUSH1 0x20 DUP2 ADD SWAP1 POP PUSH2 0x1445 JUMP JUMPDEST DUP4 DUP2 GT ISZERO PUSH2 0x146F JUMPI PUSH1 0x0 DUP5 DUP5 ADD MSTORE JUMPDEST POP POP POP POP JUMP JUMPDEST PUSH1 0x0 PUSH2 0x1480 DUP3 PUSH2 0x1426 JUMP JUMPDEST PUSH2 0x148A DUP2 DUP6 PUSH2 0x1431 JUMP JUMPDEST SWAP4 POP PUSH2 0x149A DUP2 DUP6 PUSH1 0x20 DUP7 ADD PUSH2 0x1442 JUMP JUMPDEST PUSH2 0x14A3 DUP2 PUSH2 0xF9F JUMP JUMPDEST DUP5 ADD SWAP2 POP POP SWAP3 SWAP2 POP POP JUMP JUMPDEST PUSH1 0x0 PUSH2 0x14BA DUP4 DUP4 PUSH2 0x1475 JUMP JUMPDEST SWAP1 POP SWAP3 SWAP2 POP POP JUMP JUMPDEST PUSH1 0x0 PUSH1 0x20 DUP3 ADD SWAP1 POP SWAP2 SWAP1 POP JUMP JUMPDEST PUSH1 0x0 PUSH2 0x14DA DUP3 PUSH2 0x13FA JUMP JUMPDEST PUSH2 0x14E4 DUP2 DUP6 PUSH2 0x1405 JUMP JUMPDEST SWAP4 POP DUP4 PUSH1 0x20 DUP3 MUL DUP6 ADD PUSH2 0x14F6 DUP6 PUSH2 0x1416 JUMP JUMPDEST DUP1 PUSH1 0x0 JUMPDEST DUP6 DUP2 LT ISZERO PUSH2 0x1532 JUMPI DUP5 DUP5 SUB DUP10 MSTORE DUP2 MLOAD PUSH2 0x1513 DUP6 DUP3 PUSH2 0x14AE JUMP JUMPDEST SWAP5 POP PUSH2 0x151E DUP4 PUSH2 0x14C2 JUMP JUMPDEST SWAP3 POP PUSH1 0x20 DUP11 ADD SWAP10 POP POP PUSH1 0x1 DUP2 ADD SWAP1 POP PUSH2 0x14FA JUMP JUMPDEST POP DUP3 SWAP8 POP DUP8 SWAP6 POP POP POP POP POP POP SWAP3 SWAP2 POP POP JUMP JUMPDEST PUSH1 0x0 PUSH1 0x20 DUP3 ADD SWAP1 POP DUP2 DUP2 SUB PUSH1 0x0 DUP4 ADD MSTORE PUSH2 0x155E DUP2 DUP5 PUSH2 0x14CF JUMP JUMPDEST SWAP1 POP SWAP3 SWAP2 POP POP JUMP JUMPDEST PUSH1 0x0 DUP1 PUSH1 0x40 DUP4 DUP6 SUB SLT ISZERO PUSH2 0x157D JUMPI PUSH2 0x157C PUSH2 0xF2D JUMP JUMPDEST JUMPDEST PUSH1 0x0 DUP4 ADD CALLDATALOAD PUSH8 0xFFFFFFFFFFFFFFFF DUP2 GT ISZERO PUSH2 0x159B JUMPI PUSH2 0x159A PUSH2 0xF32 JUMP JUMPDEST JUMPDEST PUSH2 0x15A7 DUP6 DUP3 DUP7 ADD PUSH2 0x10AD JUMP JUMPDEST SWAP3 POP POP PUSH1 0x20 DUP4 ADD CALLDATALOAD PUSH8 0xFFFFFFFFFFFFFFFF DUP2 GT ISZERO PUSH2 0x15C8 JUMPI PUSH2 0x15C7 PUSH2 0xF32 JUMP JUMPDEST JUMPDEST PUSH2 0x15D4 DUP6 DUP3 DUP7 ADD PUSH2 0x10AD JUMP JUMPDEST SWAP2 POP POP SWAP3 POP SWAP3 SWAP1 POP JUMP JUMPDEST PUSH2 0x15E7 DUP2 PUSH2 0x1137 JUMP JUMPDEST DUP3 MSTORE POP POP JUMP JUMPDEST PUSH1 0x0 DUP2 MLOAD SWAP1 POP SWAP2 SWAP1 POP JUMP JUMPDEST PUSH1 0x0 DUP3 DUP3 MSTORE PUSH1 0x20 DUP3 ADD SWAP1 POP SWAP3 SWAP2 POP POP JUMP JUMPDEST PUSH1 0x0 DUP2 SWAP1 POP PUSH1 0x20 DUP3 ADD SWAP1 POP SWAP2 SWAP1 POP JUMP JUMPDEST PUSH1 0x0 PUSH1 0x40 DUP4 ADD PUSH1 0x0 DUP4 ADD MLOAD DUP5 DUP3 SUB PUSH1 0x0 DUP7 ADD MSTORE PUSH2 0x1636 DUP3 DUP3 PUSH2 0x1475 JUMP JUMPDEST SWAP2 POP POP PUSH1 0x20 DUP4 ADD MLOAD DUP5 DUP3 SUB PUSH1 0x20 DUP7 ADD MSTORE PUSH2 0x1650 DUP3 DUP3 PUSH2 0x1475 JUMP JUMPDEST SWAP2 POP POP DUP1 SWAP2 POP POP SWAP3 SWAP2 POP POP JUMP JUMPDEST PUSH1 0x0 PUSH2 0x1669 DUP4 DUP4 PUSH2 0x1619 JUMP JUMPDEST SWAP1 POP SWAP3 SWAP2 POP POP JUMP JUMPDEST PUSH1 0x0 PUSH1 0x20 DUP3 ADD SWAP1 POP SWAP2 SWAP1 POP JUMP JUMPDEST PUSH1 0x0 PUSH2 0x1689 DUP3 PUSH2 0x15ED JUMP JUMPDEST PUSH2 0x1693 DUP2 DUP6 PUSH2 0x15F8 JUMP JUMPDEST SWAP4 POP DUP4 PUSH1 0x20 DUP3 MUL DUP6 ADD PUSH2 0x16A5 DUP6 PUSH2 0x1609 JUMP JUMPDEST DUP1 PUSH1 0x0 JUMPDEST DUP6 DUP2 LT ISZERO PUSH2 0x16E1 JUMPI DUP5 DUP5 SUB DUP10 MSTORE DUP2 MLOAD PUSH2 0x16C2 DUP6 DUP3 PUSH2 0x165D JUMP JUMPDEST SWAP5 POP PUSH2 0x16CD DUP4 PUSH2 0x1671 JUMP JUMPDEST SWAP3 POP PUSH1 0x20 DUP11 ADD SWAP10 POP POP PUSH1 0x1 DUP2 ADD SWAP1 POP PUSH2 0x16A9 JUMP JUMPDEST POP DUP3 SWAP8 POP DUP8 SWAP6 POP POP POP POP POP POP SWAP3 SWAP2 POP POP JUMP JUMPDEST PUSH1 0x0 PUSH1 0xC0 DUP4 ADD PUSH1 0x0 DUP4 ADD MLOAD DUP5 DUP3 SUB PUSH1 0x0 DUP7 ADD MSTORE PUSH2 0x1710 DUP3 DUP3 PUSH2 0x1475 JUMP JUMPDEST SWAP2 POP POP PUSH1 0x20 DUP4 ADD MLOAD DUP5 DUP3 SUB PUSH1 0x20 DUP7 ADD MSTORE PUSH2 0x172A DUP3 DUP3 PUSH2 0x1475 JUMP JUMPDEST SWAP2 POP POP PUSH1 0x40 DUP4 ADD MLOAD DUP5 DUP3 SUB PUSH1 0x40 DUP7 ADD MSTORE PUSH2 0x1744 DUP3 DUP3 PUSH2 0x1475 JUMP JUMPDEST SWAP2 POP POP PUSH1 0x60 DUP4 ADD MLOAD PUSH2 0x1759 PUSH1 0x60 DUP7 ADD DUP3 PUSH2 0x15DE JUMP JUMPDEST POP PUSH1 0x80 DUP4 ADD MLOAD DUP5 DUP3 SUB PUSH1 0x80 DUP7 ADD MSTORE PUSH2 0x1771 DUP3 DUP3 PUSH2 0x1475 JUMP JUMPDEST SWAP2 POP POP PUSH1 0xA0 DUP4 ADD MLOAD DUP5 DUP3 SUB PUSH1 0xA0 DUP7 ADD MSTORE PUSH2 0x178B DUP3 DUP3 PUSH2 0x167E JUMP JUMPDEST SWAP2 POP POP DUP1 SWAP2 POP POP SWAP3 SWAP2 POP POP JUMP JUMPDEST PUSH1 0x0 PUSH1 0x20 DUP3 ADD SWAP1 POP DUP2 DUP2 SUB PUSH1 0x0 DUP4 ADD MSTORE PUSH2 0x17B2 DUP2 DUP5 PUSH2 0x16F3 JUMP JUMPDEST SWAP1 POP SWAP3 SWAP2 POP POP JUMP JUMPDEST PUSH32 0x4E487B7100000000000000000000000000000000000000000000000000000000 PUSH1 0x0 MSTORE PUSH1 0x22 PUSH1 0x4 MSTORE PUSH1 0x24 PUSH1 0x0 REVERT JUMPDEST PUSH1 0x0 PUSH1 0x2 DUP3 DIV SWAP1 POP PUSH1 0x1 DUP3 AND DUP1 PUSH2 0x1801 JUMPI PUSH1 0x7F DUP3 AND SWAP2 POP JUMPDEST PUSH1 0x20 DUP3 LT DUP2 EQ ISZERO PUSH2 0x1815 JUMPI PUSH2 0x1814 PUSH2 0x17BA JUMP JUMPDEST JUMPDEST POP SWAP2 SWAP1 POP JUMP JUMPDEST PUSH32 0x4E487B7100000000000000000000000000000000000000000000000000000000 PUSH1 0x0 MSTORE PUSH1 0x32 PUSH1 0x4 MSTORE PUSH1 0x24 PUSH1 0x0 REVERT JUMPDEST PUSH32 0x4E487B7100000000000000000000000000000000000000000000000000000000 PUSH1 0x0 MSTORE PUSH1 0x11 PUSH1 0x4 MSTORE PUSH1 0x24 PUSH1 0x0 REVERT JUMPDEST PUSH1 0x0 PUSH2 0x1884 DUP3 PUSH2 0x1137 JUMP JUMPDEST SWAP2 POP PUSH32 0xFFFFFFFFFFFFFFFFFFFFFFFFFFFFFFFFFFFFFFFFFFFFFFFFFFFFFFFFFFFFFFFF DUP3 EQ ISZERO PUSH2 0x18B7 JUMPI PUSH2 0x18B6 PUSH2 0x184A JUMP JUMPDEST JUMPDEST PUSH1 0x1 DUP3 ADD SWAP1 POP SWAP2 SWAP1 POP JUMP JUMPDEST PUSH2 0x18CB DUP2 PUSH2 0xF57 JUMP JUMPDEST DUP3 MSTORE POP POP JUMP JUMPDEST PUSH1 0x0 DUP3 DUP3 MSTORE PUSH1 0x20 DUP3 ADD SWAP1 POP SWAP3 SWAP2 POP POP JUMP JUMPDEST PUSH1 0x0 PUSH2 0x18ED DUP3 PUSH2 0x1426 JUMP JUMPDEST PUSH2 0x18F7 DUP2 DUP6 PUSH2 0x18D1 JUMP JUMPDEST SWAP4 POP PUSH2 0x1907 DUP2 DUP6 PUSH1 0x20 DUP7 ADD PUSH2 0x1442 JUMP JUMPDEST PUSH2 0x1910 DUP2 PUSH2 0xF9F JUMP JUMPDEST DUP5 ADD SWAP2 POP POP SWAP3 SWAP2 POP POP JUMP JUMPDEST PUSH1 0x0 PUSH1 0x40 DUP3 ADD SWAP1 POP PUSH2 0x1930 PUSH1 0x0 DUP4 ADD DUP6 PUSH2 0x18C2 JUMP JUMPDEST DUP2 DUP2 SUB PUSH1 0x20 DUP4 ADD MSTORE PUSH2 0x1942 DUP2 DUP5 PUSH2 0x18E2 JUMP JUMPDEST SWAP1 POP SWAP4 SWAP3 POP POP POP JUMP JUMPDEST PUSH1 0x0 DUP2 SWAP1 POP SWAP3 SWAP2 POP POP JUMP JUMPDEST PUSH1 0x0 PUSH2 0x1961 DUP3 PUSH2 0x1426 JUMP JUMPDEST PUSH2 0x196B DUP2 DUP6 PUSH2 0x194B JUMP JUMPDEST SWAP4 POP PUSH2 0x197B DUP2 DUP6 PUSH1 0x20 DUP7 ADD PUSH2 0x1442 JUMP JUMPDEST DUP1 DUP5 ADD SWAP2 POP POP SWAP3 SWAP2 POP POP JUMP JUMPDEST PUSH1 0x0 PUSH2 0x1993 DUP3 DUP5 PUSH2 0x1956 JUMP JUMPDEST SWAP2 POP DUP2 SWAP1 POP SWAP3 SWAP2 POP POP JUMP JUMPDEST PUSH2 0x19A7 DUP2 PUSH2 0x1137 JUMP JUMPDEST DUP3 MSTORE POP POP JUMP JUMPDEST PUSH1 0x0 DUP2 SLOAD SWAP1 POP SWAP2 SWAP1 POP JUMP JUMPDEST PUSH1 0x0 DUP3 DUP3 MSTORE PUSH1 0x20 DUP3 ADD SWAP1 POP SWAP3 SWAP2 POP POP JUMP JUMPDEST PUSH1 0x0 DUP2 SWAP1 POP DUP2 PUSH1 0x0 MSTORE PUSH1 0x20 PUSH1 0x0 KECCAK256 SWAP1 POP SWAP2 SWAP1 POP JUMP JUMPDEST PUSH1 0x0 DUP2 SWAP1 POP DUP2 PUSH1 0x0 MSTORE PUSH1 0x20 PUSH1 0x0 KECCAK256 SWAP1 POP SWAP2 SWAP1 POP JUMP JUMPDEST PUSH1 0x0 DUP2 SLOAD PUSH2 0x1A00 DUP2 PUSH2 0x17E9 JUMP JUMPDEST PUSH2 0x1A0A DUP2 DUP7 PUSH2 0x1431 JUMP JUMPDEST SWAP5 POP PUSH1 0x1 DUP3 AND PUSH1 0x0 DUP2 EQ PUSH2 0x1A25 JUMPI PUSH1 0x1 DUP2 EQ PUSH2 0x1A37 JUMPI PUSH2 0x1A6A JUMP JUMPDEST PUSH1 0xFF NOT DUP4 AND DUP7 MSTORE PUSH1 0x20 DUP7 ADD SWAP4 POP PUSH2 0x1A6A JUMP JUMPDEST PUSH2 0x1A40 DUP6 PUSH2 0x19DE JUMP JUMPDEST PUSH1 0x0 JUMPDEST DUP4 DUP2 LT ISZERO PUSH2 0x1A62 JUMPI DUP2 SLOAD DUP2 DUP10 ADD MSTORE PUSH1 0x1 DUP3 ADD SWAP2 POP PUSH1 0x20 DUP2 ADD SWAP1 POP PUSH2 0x1A43 JUMP JUMPDEST DUP1 DUP9 ADD SWAP6 POP POP POP JUMPDEST POP POP POP SWAP3 SWAP2 POP POP JUMP JUMPDEST PUSH1 0x0 PUSH1 0x40 DUP4 ADD PUSH1 0x0 DUP1 DUP5 ADD DUP6 DUP4 SUB PUSH1 0x0 DUP8 ADD MSTORE PUSH2 0x1A90 DUP4 DUP3 PUSH2 0x19F3 JUMP JUMPDEST SWAP3 POP POP PUSH1 0x1 DUP5 ADD DUP6 DUP4 SUB PUSH1 0x20 DUP8 ADD MSTORE PUSH2 0x1AA9 DUP4 DUP3 PUSH2 0x19F3 JUMP JUMPDEST SWAP3 POP POP DUP2 SWAP3 POP POP POP SWAP3 SWAP2 POP POP JUMP JUMPDEST PUSH1 0x0 PUSH2 0x1AC3 DUP4 DUP4 PUSH2 0x1A73 JUMP JUMPDEST SWAP1 POP SWAP3 SWAP2 POP POP JUMP JUMPDEST PUSH1 0x0 PUSH1 0x2 DUP3 ADD SWAP1 POP SWAP2 SWAP1 POP JUMP JUMPDEST PUSH1 0x0 PUSH2 0x1AE3 DUP3 PUSH2 0x19AD JUMP JUMPDEST PUSH2 0x1AED DUP2 DUP6 PUSH2 0x19B8 JUMP JUMPDEST SWAP4 POP DUP4 PUSH1 0x20 DUP3 MUL DUP6 ADD PUSH2 0x1AFF DUP6 PUSH2 0x19C9 JUMP JUMPDEST DUP1 PUSH1 0x0 JUMPDEST DUP6 DUP2 LT ISZERO PUSH2 0x1B3A JUMPI DUP5 DUP5 SUB DUP10 MSTORE DUP2 PUSH2 0x1B1B DUP6 DUP3 PUSH2 0x1AB7 JUMP JUMPDEST SWAP5 POP PUSH2 0x1B26 DUP4 PUSH2 0x1ACB JUMP JUMPDEST SWAP3 POP PUSH1 0x20 DUP11 ADD SWAP10 POP POP PUSH1 0x1 DUP2 ADD SWAP1 POP PUSH2 0x1B03 JUMP JUMPDEST POP DUP3 SWAP8 POP DUP8 SWAP6 POP POP POP POP POP POP SWAP3 SWAP2 POP POP JUMP JUMPDEST PUSH1 0x0 PUSH1 0x80 DUP3 ADD SWAP1 POP DUP2 DUP2 SUB PUSH1 0x0 DUP4 ADD MSTORE PUSH2 0x1B66 DUP2 DUP8 PUSH2 0x18E2 JUMP JUMPDEST SWAP1 POP DUP2 DUP2 SUB PUSH1 0x20 DUP4 ADD MSTORE PUSH2 0x1B7A DUP2 DUP7 PUSH2 0x18E2 JUMP JUMPDEST SWAP1 POP PUSH2 0x1B89 PUSH1 0x40 DUP4 ADD DUP6 PUSH2 0x199E JUMP JUMPDEST DUP2 DUP2 SUB PUSH1 0x60 DUP4 ADD MSTORE PUSH2 0x1B9B DUP2 DUP5 PUSH2 0x1AD8 JUMP JUMPDEST SWAP1 POP SWAP6 SWAP5 POP POP POP POP POP JUMP INVALID LOG2 PUSH5 0x6970667358 0x22 SLT KECCAK256 SUB DUP4 CREATE2 INVALID SWAP1 PUSH15 0xEFDBDB05FBBB36476940D90D9783BC SELFDESTRUCT EXP 0xDC 0xA7 JUMPI 0x2C 0xD5 0xD LOG2 ISZERO SWAP3 PUSH5 0x736F6C6343 STOP ADDMOD ADDMOD STOP CALLER "
        },
        "gasEstimates": {
          "creation": {
            "codeDepositCost": "1426400",
            "executionCost": "1486",
            "totalCost": "1427886"
          },
          "external": {
            "addAddressToCompany(address,string)": "infinite",
            "getCompanyIDFromWallet(address)": "infinite",
            "getMeetingData(string,string)": "infinite",
            "storeContent(string,string,string,string,uint256,string,string[],string[])": "infinite"
          }
        },
        "methodIdentifiers": {
          "addAddressToCompany(address,string)": "088a8df1",
          "getCompanyIDFromWallet(address)": "b5ed1a0d",
          "getMeetingData(string,string)": "b965d74d",
          "storeContent(string,string,string,string,uint256,string,string[],string[])": "3bae9fd7"
        }
      },
      "storageLayout": {
        "storage": [
          {
            "astId": 71,
            "contract": "contracts/SafeMeeting.sol:SafeMeeting",
            "label": "s_addressToCompanyID",
            "offset": 0,
            "slot": "0",
            "type": "t_mapping(t_address,t_array(t_string_storage)dyn_storage)"
          },
          {
            "astId": 78,
            "contract": "contracts/SafeMeeting.sol:SafeMeeting",
            "label": "s_idToMeetingData",
            "offset": 0,
            "slot": "1",
            "type": "t_mapping(t_string_memory_ptr,t_mapping(t_string_memory_ptr,t_struct(MeetingData)66_storage))"
          }
        ],
        "types": {
          "t_address": {
            "encoding": "inplace",
            "label": "address",
            "numberOfBytes": "20"
          },
          "t_array(t_string_storage)dyn_storage": {
            "base": "t_string_storage",
            "encoding": "dynamic_array",
            "label": "string[]",
            "numberOfBytes": "32"
          },
          "t_array(t_struct(MemberRole)51_storage)dyn_storage": {
            "base": "t_struct(MemberRole)51_storage",
            "encoding": "dynamic_array",
            "label": "struct SafeMeeting.MemberRole[]",
            "numberOfBytes": "32"
          },
          "t_mapping(t_address,t_array(t_string_storage)dyn_storage)": {
            "encoding": "mapping",
            "key": "t_address",
            "label": "mapping(address => string[])",
            "numberOfBytes": "32",
            "value": "t_array(t_string_storage)dyn_storage"
          },
          "t_mapping(t_string_memory_ptr,t_mapping(t_string_memory_ptr,t_struct(MeetingData)66_storage))": {
            "encoding": "mapping",
            "key": "t_string_memory_ptr",
            "label": "mapping(string => mapping(string => struct SafeMeeting.MeetingData))",
            "numberOfBytes": "32",
            "value": "t_mapping(t_string_memory_ptr,t_struct(MeetingData)66_storage)"
          },
          "t_mapping(t_string_memory_ptr,t_struct(MeetingData)66_storage)": {
            "encoding": "mapping",
            "key": "t_string_memory_ptr",
            "label": "mapping(string => struct SafeMeeting.MeetingData)",
            "numberOfBytes": "32",
            "value": "t_struct(MeetingData)66_storage"
          },
          "t_string_memory_ptr": {
            "encoding": "bytes",
            "label": "string",
            "numberOfBytes": "32"
          },
          "t_string_storage": {
            "encoding": "bytes",
            "label": "string",
            "numberOfBytes": "32"
          },
          "t_struct(MeetingData)66_storage": {
            "encoding": "inplace",
            "label": "struct SafeMeeting.MeetingData",
            "members": [
              {
                "astId": 53,
                "contract": "contracts/SafeMeeting.sol:SafeMeeting",
                "label": "meetingID",
                "offset": 0,
                "slot": "0",
                "type": "t_string_storage"
              },
              {
                "astId": 55,
                "contract": "contracts/SafeMeeting.sol:SafeMeeting",
                "label": "chairpersonName",
                "offset": 0,
                "slot": "1",
                "type": "t_string_storage"
              },
              {
                "astId": 57,
                "contract": "contracts/SafeMeeting.sol:SafeMeeting",
                "label": "timestamp",
                "offset": 0,
                "slot": "2",
                "type": "t_string_storage"
              },
              {
                "astId": 59,
                "contract": "contracts/SafeMeeting.sol:SafeMeeting",
                "label": "numberOfMembers",
                "offset": 0,
                "slot": "3",
                "type": "t_uint256"
              },
              {
                "astId": 61,
                "contract": "contracts/SafeMeeting.sol:SafeMeeting",
                "label": "contentHash",
                "offset": 0,
                "slot": "4",
                "type": "t_string_storage"
              },
              {
                "astId": 65,
                "contract": "contracts/SafeMeeting.sol:SafeMeeting",
                "label": "memberToRoles",
                "offset": 0,
                "slot": "5",
                "type": "t_array(t_struct(MemberRole)51_storage)dyn_storage"
              }
            ],
            "numberOfBytes": "192"
          },
          "t_struct(MemberRole)51_storage": {
            "encoding": "inplace",
            "label": "struct SafeMeeting.MemberRole",
            "members": [
              {
                "astId": 48,
                "contract": "contracts/SafeMeeting.sol:SafeMeeting",
                "label": "memberName",
                "offset": 0,
                "slot": "0",
                "type": "t_string_storage"
              },
              {
                "astId": 50,
                "contract": "contracts/SafeMeeting.sol:SafeMeeting",
                "label": "memberRole",
                "offset": 0,
                "slot": "1",
                "type": "t_string_storage"
              }
            ],
            "numberOfBytes": "64"
          },
          "t_uint256": {
            "encoding": "inplace",
            "label": "uint256",
            "numberOfBytes": "32"
          }
        }
      },
      "userdoc": {
        "kind": "user",
        "methods": {
          "addAddressToCompany(address,string)": {
            "notice": "Method for registering a wallet address to allow access to company data"
          },
          "getCompanyIDFromWallet(address)": {
            "notice": "Method for returning the list of company IDs accessible to the user"
          },
          "getMeetingData(string,string)": {
            "notice": ": Method for returning the requested meeting data"
          },
          "storeContent(string,string,string,string,uint256,string,string[],string[])": {
            "notice": ": Method for storing the meeting data into the specific company ID List"
          }
        },
        "notice": "This contract is for creating an untemperable storage for board meeting contents.",
        "version": 1
      }
    }
  }
}